{"project/contracts/PropertyRegistry.sol":{"PropertyRegistry":{"abi":[{"inputs":[],"stateMutability":"nonpayable","type":"constructor"},{"anonymous":false,"inputs":[{"indexed":false,"internalType":"uint256","name":"count","type":"uint256"}],"name":"PropertiesReplaced","type":"event"},{"anonymous":false,"inputs":[{"indexed":false,"internalType":"string","name":"slug","type":"string"},{"indexed":false,"internalType":"uint256","name":"quantity","type":"uint256"},{"indexed":false,"internalType":"address","name":"buyer","type":"address"}],"name":"PropertySold","type":"event"},{"anonymous":false,"inputs":[{"indexed":false,"internalType":"string","name":"slug","type":"string"},{"indexed":false,"internalType":"uint256","name":"index","type":"uint256"}],"name":"PropertyUpsert","type":"event"},{"inputs":[{"internalType":"string","name":"slug","type":"string"},{"internalType":"uint256","name":"quantity","type":"uint256"}],"name":"invest","outputs":[],"stateMutability":"payable","type":"function"},{"inputs":[],"name":"listProperties","outputs":[{"components":[{"internalType":"string","name":"slug","type":"string"},{"internalType":"string","name":"title","type":"string"},{"internalType":"string","name":"city","type":"string"},{"internalType":"uint8","name":"status","type":"uint8"},{"internalType":"uint256","name":"available","type":"uint256"},{"internalType":"uint256","name":"total","type":"uint256"},{"internalType":"string","name":"blueprint","type":"string"},{"internalType":"string","name":"render","type":"string"},{"internalType":"string","name":"tokenized","type":"string"},{"internalType":"int32","name":"latE6","type":"int32"},{"internalType":"int32","name":"lngE6","type":"int32"},{"internalType":"uint16","name":"apyBps","type":"uint16"},{"internalType":"uint64","name":"tokenPriceUsdCents","type":"uint64"}],"internalType":"struct PropertyRegistry.PropertyMeta[]","name":"","type":"tuple[]"}],"stateMutability":"view","type":"function"},{"inputs":[],"name":"owner","outputs":[{"internalType":"address","name":"","type":"address"}],"stateMutability":"view","type":"function"},{"inputs":[{"components":[{"internalType":"string","name":"slug","type":"string"},{"internalType":"string","name":"title","type":"string"},{"internalType":"string","name":"city","type":"string"},{"internalType":"uint8","name":"status","type":"uint8"},{"internalType":"uint256","name":"available","type":"uint256"},{"internalType":"uint256","name":"total","type":"uint256"},{"internalType":"string","name":"blueprint","type":"string"},{"internalType":"string","name":"render","type":"string"},{"internalType":"string","name":"tokenized","type":"string"},{"internalType":"int32","name":"latE6","type":"int32"},{"internalType":"int32","name":"lngE6","type":"int32"},{"internalType":"uint16","name":"apyBps","type":"uint16"},{"internalType":"uint64","name":"tokenPriceUsdCents","type":"uint64"}],"internalType":"struct PropertyRegistry.PropertyMeta[]","name":"next","type":"tuple[]"}],"name":"setProperties","outputs":[],"stateMutability":"nonpayable","type":"function"},{"inputs":[{"components":[{"internalType":"string","name":"slug","type":"string"},{"internalType":"string","name":"title","type":"string"},{"internalType":"string","name":"city","type":"string"},{"internalType":"uint8","name":"status","type":"uint8"},{"internalType":"uint256","name":"available","type":"uint256"},{"internalType":"uint256","name":"total","type":"uint256"},{"internalType":"string","name":"blueprint","type":"string"},{"internalType":"string","name":"render","type":"string"},{"internalType":"string","name":"tokenized","type":"string"},{"internalType":"int32","name":"latE6","type":"int32"},{"internalType":"int32","name":"lngE6","type":"int32"},{"internalType":"uint16","name":"apyBps","type":"uint16"},{"internalType":"uint64","name":"tokenPriceUsdCents","type":"uint64"}],"internalType":"struct PropertyRegistry.PropertyMeta","name":"meta","type":"tuple"},{"internalType":"uint256","name":"index","type":"uint256"}],"name":"upsert","outputs":[],"stateMutability":"nonpayable","type":"function"}],"evm":{"bytecode":{"linkReferences":{},"object":"60a060405234801561000f575f80fd5b503373ffffffffffffffffffffffffffffffffffffffff1660808173ffffffffffffffffffffffffffffffffffffffff1681525050608051611f8961006a5f395f81816105850152818161072e01526108ed0152611f895ff3fe608060405260043610610049575f3560e01c80632625fe2a1461004d5780633cafd93e146100775780635320e9501461009f5780638da5cb5b146100c7578063d22782af146100f1575b5f80fd5b348015610058575f80fd5b5061006161010d565b60405161006e9190610f6c565b60405180910390f35b348015610082575f80fd5b5061009d60048036038101906100989190610fe1565b610583565b005b3480156100aa575f80fd5b506100c560048036038101906100c0919061109c565b61072c565b005b3480156100d2575f80fd5b506100db6108eb565b6040516100e89190611126565b60405180910390f35b61010b60048036038101906101069190611194565b61090f565b005b60605f805480602002602001604051908101604052809291908181526020015f905b8282101561057a578382905f5260205f2090600a0201604051806101a00160405290815f820180546101609061121e565b80601f016020809104026020016040519081016040528092919081815260200182805461018c9061121e565b80156101d75780601f106101ae576101008083540402835291602001916101d7565b820191905f5260205f20905b8154815290600101906020018083116101ba57829003601f168201915b505050505081526020016001820180546101f09061121e565b80601f016020809104026020016040519081016040528092919081815260200182805461021c9061121e565b80156102675780601f1061023e57610100808354040283529160200191610267565b820191905f5260205f20905b81548152906001019060200180831161024a57829003601f168201915b505050505081526020016002820180546102809061121e565b80601f01602080910402602001604051908101604052809291908181526020018280546102ac9061121e565b80156102f75780601f106102ce576101008083540402835291602001916102f7565b820191905f5260205f20905b8154815290600101906020018083116102da57829003601f168201915b50505050508152602001600382015f9054906101000a900460ff1660ff1660ff16815260200160048201548152602001600582015481526020016006820180546103409061121e565b80601f016020809104026020016040519081016040528092919081815260200182805461036c9061121e565b80156103b75780601f1061038e576101008083540402835291602001916103b7565b820191905f5260205f20905b81548152906001019060200180831161039a57829003601f168201915b505050505081526020016007820180546103d09061121e565b80601f01602080910402602001604051908101604052809291908181526020018280546103fc9061121e565b80156104475780601f1061041e57610100808354040283529160200191610447565b820191905f5260205f20905b81548152906001019060200180831161042a57829003601f168201915b505050505081526020016008820180546104609061121e565b80601f016020809104026020016040519081016040528092919081815260200182805461048c9061121e565b80156104d75780601f106104ae576101008083540402835291602001916104d7565b820191905f5260205f20905b8154815290600101906020018083116104ba57829003601f168201915b50505050508152602001600982015f9054906101000a900460030b60030b60030b81526020016009820160049054906101000a900460030b60030b60030b81526020016009820160089054906101000a900461ffff1661ffff1661ffff16815260200160098201600a9054906101000a900467ffffffffffffffff1667ffffffffffffffff1667ffffffffffffffff16815250508152602001906001019061012f565b50505050905090565b7f000000000000000000000000000000000000000000000000000000000000000073ffffffffffffffffffffffffffffffffffffffff163373ffffffffffffffffffffffffffffffffffffffff1614610611576040517f08c379a0000000000000000000000000000000000000000000000000000000008152600401610608906112a8565b60405180910390fd5b5f8054905081101561069957815f8281548110610631576106306112c6565b5b905f5260205f2090600a020181816106499190611b3f565b9050507f0a4d6f49d3a3f50a17c421e5e15907440b40f74df3251ce8de5b578c8dae8ce382805f019061067c91906112ff565b8360405161068c93929190611b96565b60405180910390a1610728565b5f82908060018154018082558091505060019003905f5260205f2090600a02015f9091909190915081816106cd9190611b3f565b50507f0a4d6f49d3a3f50a17c421e5e15907440b40f74df3251ce8de5b578c8dae8ce382805f01906106ff91906112ff565b60015f805490506107109190611bf3565b60405161071f93929190611b96565b60405180910390a15b5050565b7f000000000000000000000000000000000000000000000000000000000000000073ffffffffffffffffffffffffffffffffffffffff163373ffffffffffffffffffffffffffffffffffffffff16146107ba576040517f08c379a00000000000000000000000000000000000000000000000000000000081526004016107b1906112a8565b60405180910390fd5b5f806107c69190610afb565b5f5b828290508110156108ac575f8383838181106107e7576107e66112c6565b5b90506020028101906107f99190611c26565b908060018154018082558091505060019003905f5260205f2090600a02015f90919091909150818161082b9190611b3f565b50507f0a4d6f49d3a3f50a17c421e5e15907440b40f74df3251ce8de5b578c8dae8ce3838383818110610861576108606112c6565b5b90506020028101906108739190611c26565b805f019061088191906112ff565b8360405161089193929190611b96565b60405180910390a180806108a490611c4e565b9150506107c8565b507fa40c5e032e8eb20ee08dde19be896fb148e4a96469d586895530042c5293747b828290506040516108df9190611c95565b60405180910390a15050565b7f000000000000000000000000000000000000000000000000000000000000000081565b5f808054905090505f5b5f80549050811015610993578484604051610935929190611cdc565b60405180910390205f82815481106109505761094f6112c6565b5b905f5260205f2090600a02015f0160405161096b9190611d86565b60405180910390200361098057809150610993565b808061098b90611c4e565b915050610919565b505f8054905081106109da576040517f08c379a00000000000000000000000000000000000000000000000000000000081526004016109d190611de6565b60405180910390fd5b5f8082815481106109ee576109ed6112c6565b5b905f5260205f2090600a020190508281600401541015610a43576040517f08c379a0000000000000000000000000000000000000000000000000000000008152600401610a3a90611e4e565b60405180910390fd5b5f66038d7ea4c6800084610a579190611e6c565b905080341015610a9c576040517f08c379a0000000000000000000000000000000000000000000000000000000008152600401610a9390611ef7565b60405180910390fd5b83826004015f828254610aaf9190611bf3565b925050819055507fb22d9f7e14059f572d7c180954839d3b0bdbc781ac20fa03d69c29f54cd20fb386868633604051610aeb9493929190611f15565b60405180910390a1505050505050565b5080545f8255600a02905f5260205f2090810190610b199190610b1c565b50565b5b80821115610c06575f8082015f610b349190610c0a565b600182015f610b439190610c0a565b600282015f610b529190610c0a565b600382015f6101000a81549060ff0219169055600482015f9055600582015f9055600682015f610b829190610c0a565b600782015f610b919190610c0a565b600882015f610ba09190610c0a565b600982015f6101000a81549063ffffffff02191690556009820160046101000a81549063ffffffff02191690556009820160086101000a81549061ffff021916905560098201600a6101000a81549067ffffffffffffffff021916905550600a01610b1d565b5090565b508054610c169061121e565b5f825580601f10610c275750610c44565b601f0160209004905f5260205f2090810190610c439190610c47565b5b50565b5b80821115610c5e575f815f905550600101610c48565b5090565b5f81519050919050565b5f82825260208201905092915050565b5f819050602082019050919050565b5f81519050919050565b5f82825260208201905092915050565b5f5b83811015610cc2578082015181840152602081019050610ca7565b5f8484015250505050565b5f601f19601f8301169050919050565b5f610ce782610c8b565b610cf18185610c95565b9350610d01818560208601610ca5565b610d0a81610ccd565b840191505092915050565b5f60ff82169050919050565b610d2a81610d15565b82525050565b5f819050919050565b610d4281610d30565b82525050565b5f8160030b9050919050565b610d5d81610d48565b82525050565b5f61ffff82169050919050565b610d7981610d63565b82525050565b5f67ffffffffffffffff82169050919050565b610d9b81610d7f565b82525050565b5f6101a083015f8301518482035f860152610dbc8282610cdd565b91505060208301518482036020860152610dd68282610cdd565b91505060408301518482036040860152610df08282610cdd565b9150506060830151610e056060860182610d21565b506080830151610e186080860182610d39565b5060a0830151610e2b60a0860182610d39565b5060c083015184820360c0860152610e438282610cdd565b91505060e083015184820360e0860152610e5d8282610cdd565b915050610100830151848203610100860152610e798282610cdd565b915050610120830151610e90610120860182610d54565b50610140830151610ea5610140860182610d54565b50610160830151610eba610160860182610d70565b50610180830151610ecf610180860182610d92565b508091505092915050565b5f610ee58383610da1565b905092915050565b5f602082019050919050565b5f610f0382610c62565b610f0d8185610c6c565b935083602082028501610f1f85610c7c565b805f5b85811015610f5a5784840389528151610f3b8582610eda565b9450610f4683610eed565b925060208a01995050600181019050610f22565b50829750879550505050505092915050565b5f6020820190508181035f830152610f848184610ef9565b905092915050565b5f80fd5b5f80fd5b5f80fd5b5f6101a08284031215610fae57610fad610f94565b5b81905092915050565b610fc081610d30565b8114610fca575f80fd5b50565b5f81359050610fdb81610fb7565b92915050565b5f8060408385031215610ff757610ff6610f8c565b5b5f83013567ffffffffffffffff81111561101457611013610f90565b5b61102085828601610f98565b925050602061103185828601610fcd565b9150509250929050565b5f80fd5b5f80fd5b5f80fd5b5f8083601f84011261105c5761105b61103b565b5b8235905067ffffffffffffffff8111156110795761107861103f565b5b60208301915083602082028301111561109557611094611043565b5b9250929050565b5f80602083850312156110b2576110b1610f8c565b5b5f83013567ffffffffffffffff8111156110cf576110ce610f90565b5b6110db85828601611047565b92509250509250929050565b5f73ffffffffffffffffffffffffffffffffffffffff82169050919050565b5f611110826110e7565b9050919050565b61112081611106565b82525050565b5f6020820190506111395f830184611117565b92915050565b5f8083601f8401126111545761115361103b565b5b8235905067ffffffffffffffff8111156111715761117061103f565b5b60208301915083600182028301111561118d5761118c611043565b5b9250929050565b5f805f604084860312156111ab576111aa610f8c565b5b5f84013567ffffffffffffffff8111156111c8576111c7610f90565b5b6111d48682870161113f565b935093505060206111e786828701610fcd565b9150509250925092565b7f4e487b71000000000000000000000000000000000000000000000000000000005f52602260045260245ffd5b5f600282049050600182168061123557607f821691505b602082108103611248576112476111f1565b5b50919050565b5f82825260208201905092915050565b7f6e6f74206f776e657200000000000000000000000000000000000000000000005f82015250565b5f61129260098361124e565b915061129d8261125e565b602082019050919050565b5f6020820190508181035f8301526112bf81611286565b9050919050565b7f4e487b71000000000000000000000000000000000000000000000000000000005f52603260045260245ffd5b5f80fd5b5f80fd5b5f80fd5b5f808335600160200384360303811261131b5761131a6112f3565b5b80840192508235915067ffffffffffffffff82111561133d5761133c6112f7565b5b602083019250600182023603831315611359576113586112fb565b5b509250929050565b5f82905092915050565b7f4e487b71000000000000000000000000000000000000000000000000000000005f52604160045260245ffd5b5f819050815f5260205f209050919050565b5f6020601f8301049050919050565b5f82821b905092915050565b5f600883026113f47fffffffffffffffffffffffffffffffffffffffffffffffffffffffffffffffff826113b9565b6113fe86836113b9565b95508019841693508086168417925050509392505050565b5f819050919050565b5f61143961143461142f84610d30565b611416565b610d30565b9050919050565b5f819050919050565b6114528361141f565b61146661145e82611440565b8484546113c5565b825550505050565b5f90565b61147a61146e565b611485818484611449565b505050565b5b818110156114a85761149d5f82611472565b60018101905061148b565b5050565b601f8211156114ed576114be81611398565b6114c7846113aa565b810160208510156114d6578190505b6114ea6114e2856113aa565b83018261148a565b50505b505050565b5f82821c905092915050565b5f61150d5f19846008026114f2565b1980831691505092915050565b5f61152583836114fe565b9150826002028217905092915050565b61153f8383611361565b67ffffffffffffffff8111156115585761155761136b565b5b611562825461121e565b61156d8282856114ac565b5f601f83116001811461159a575f8415611588578287013590505b611592858261151a565b8655506115f9565b601f1984166115a886611398565b5f5b828110156115cf578489013582556001820191506020850194506020810190506115aa565b868310156115ec57848901356115e8601f8916826114fe565b8355505b6001600288020188555050505b50505050505050565b61160d838383611535565b505050565b61161b81610d15565b8114611625575f80fd5b50565b5f813561163481611612565b80915050919050565b5f815f1b9050919050565b5f60ff6116548461163d565b9350801983169250808416831791505092915050565b5f61168461167f61167a84610d15565b611416565b610d15565b9050919050565b5f819050919050565b61169d8261166a565b6116b06116a98261168b565b8354611648565b8255505050565b5f81356116c381610fb7565b80915050919050565b5f7fffffffffffffffffffffffffffffffffffffffffffffffffffffffffffffffff6116f78461163d565b9350801983169250808416831791505092915050565b6117168261141f565b61172961172282611440565b83546116cc565b8255505050565b61173981610d48565b8114611743575f80fd5b50565b5f813561175281611730565b80915050919050565b5f63ffffffff61176a8461163d565b9350801983169250808416831791505092915050565b5f61179a61179561179084610d48565b611416565b610d48565b9050919050565b5f819050919050565b6117b382611780565b6117c66117bf826117a1565b835461175b565b8255505050565b5f8160201b9050919050565b5f67ffffffff000000006117ec846117cd565b9350801983169250808416831791505092915050565b61180b82611780565b61181e611817826117a1565b83546117d9565b8255505050565b61182e81610d63565b8114611838575f80fd5b50565b5f813561184781611825565b80915050919050565b5f8160401b9050919050565b5f69ffff000000000000000061187184611850565b9350801983169250808416831791505092915050565b5f6118a161189c61189784610d63565b611416565b610d63565b9050919050565b5f819050919050565b6118ba82611887565b6118cd6118c6826118a8565b835461185c565b8255505050565b6118dd81610d7f565b81146118e7575f80fd5b50565b5f81356118f6816118d4565b80915050919050565b5f8160501b9050919050565b5f71ffffffffffffffff00000000000000000000611928846118ff565b9350801983169250808416831791505092915050565b5f61195861195361194e84610d7f565b611416565b610d7f565b9050919050565b5f819050919050565b6119718261193e565b61198461197d8261195f565b835461190b565b8255505050565b5f81015f830161199b81856112ff565b6119a6818386611602565b5050505060018101602083016119bc81856112ff565b6119c7818386611602565b5050505060028101604083016119dd81856112ff565b6119e8818386611602565b505050506003810160608301806119fe81611628565b9050611a0a8184611694565b505050600481016080830180611a1f816116b7565b9050611a2b818461170d565b5050506005810160a0830180611a40816116b7565b9050611a4c818461170d565b5050506006810160c08301611a6181856112ff565b611a6c818386611602565b505050506007810160e08301611a8281856112ff565b611a8d818386611602565b50505050600881016101008301611aa481856112ff565b611aaf818386611602565b5050505060098101610120830180611ac681611746565b9050611ad281846117aa565b50505060098101610140830180611ae881611746565b9050611af48184611802565b50505060098101610160830180611b0a8161183b565b9050611b1681846118b1565b50505060098101610180830180611b2c816118ea565b9050611b388184611968565b5050505050565b611b49828261198b565b5050565b828183375f83830152505050565b5f611b66838561124e565b9350611b73838584611b4d565b611b7c83610ccd565b840190509392505050565b611b9081610d30565b82525050565b5f6040820190508181035f830152611baf818587611b5b565b9050611bbe6020830184611b87565b949350505050565b7f4e487b71000000000000000000000000000000000000000000000000000000005f52601160045260245ffd5b5f611bfd82610d30565b9150611c0883610d30565b9250828203905081811115611c2057611c1f611bc6565b5b92915050565b5f823560016101a003833603038112611c4257611c416112f3565b5b80830191505092915050565b5f611c5882610d30565b91507fffffffffffffffffffffffffffffffffffffffffffffffffffffffffffffffff8203611c8a57611c89611bc6565b5b600182019050919050565b5f602082019050611ca85f830184611b87565b92915050565b5f81905092915050565b5f611cc38385611cae565b9350611cd0838584611b4d565b82840190509392505050565b5f611ce8828486611cb8565b91508190509392505050565b5f819050815f5260205f209050919050565b5f8154611d128161121e565b611d1c8186611cae565b9450600182165f8114611d365760018114611d4b57611d7d565b60ff1983168652811515820286019350611d7d565b611d5485611cf4565b5f5b83811015611d7557815481890152600182019150602081019050611d56565b838801955050505b50505092915050565b5f611d918284611d06565b915081905092915050565b7f50726f7065727479206e6f7420666f756e6400000000000000000000000000005f82015250565b5f611dd060128361124e565b9150611ddb82611d9c565b602082019050919050565b5f6020820190508181035f830152611dfd81611dc4565b9050919050565b7f4e6f7420656e6f75676820746f6b656e7320617661696c61626c6500000000005f82015250565b5f611e38601b8361124e565b9150611e4382611e04565b602082019050919050565b5f6020820190508181035f830152611e6581611e2c565b9050919050565b5f611e7682610d30565b9150611e8183610d30565b9250828202611e8f81610d30565b91508282048414831517611ea657611ea5611bc6565b5b5092915050565b7f496e73756666696369656e742066756e64732073656e740000000000000000005f82015250565b5f611ee160178361124e565b9150611eec82611ead565b602082019050919050565b5f6020820190508181035f830152611f0e81611ed5565b9050919050565b5f6060820190508181035f830152611f2e818688611b5b565b9050611f3d6020830185611b87565b611f4a6040830184611117565b9594505050505056fea2646970667358221220398cb3218bed496f2fe91c28a1dcfe5fbaf900a0e914f8637d9fd9edfbe3a72264736f6c63430008140033","opcodes":"PUSH1 0xA0 PUSH1 0x40 MSTORE CALLVALUE DUP1 ISZERO PUSH2 0xF JUMPI PUSH0 DUP1 REVERT JUMPDEST POP CALLER PUSH20 0xFFFFFFFFFFFFFFFFFFFFFFFFFFFFFFFFFFFFFFFF AND PUSH1 0x80 DUP2 PUSH20 0xFFFFFFFFFFFFFFFFFFFFFFFFFFFFFFFFFFFFFFFF AND DUP2 MSTORE POP POP PUSH1 0x80 MLOAD PUSH2 0x1F89 PUSH2 0x6A PUSH0 CODECOPY PUSH0 DUP2 DUP2 PUSH2 0x585 ADD MSTORE DUP2 DUP2 PUSH2 0x72E ADD MSTORE PUSH2 0x8ED ADD MSTORE PUSH2 0x1F89 PUSH0 RETURN INVALID PUSH1 0x80 PUSH1 0x40 MSTORE PUSH1 0x4 CALLDATASIZE LT PUSH2 0x49 JUMPI PUSH0 CALLDATALOAD PUSH1 0xE0 SHR DUP1 PUSH4 0x2625FE2A EQ PUSH2 0x4D JUMPI DUP1 PUSH4 0x3CAFD93E EQ PUSH2 0x77 JUMPI DUP1 PUSH4 0x5320E950 EQ PUSH2 0x9F JUMPI DUP1 PUSH4 0x8DA5CB5B EQ PUSH2 0xC7 JUMPI DUP1 PUSH4 0xD22782AF EQ PUSH2 0xF1 JUMPI JUMPDEST PUSH0 DUP1 REVERT JUMPDEST CALLVALUE DUP1 ISZERO PUSH2 0x58 JUMPI PUSH0 DUP1 REVERT JUMPDEST POP PUSH2 0x61 PUSH2 0x10D JUMP JUMPDEST PUSH1 0x40 MLOAD PUSH2 0x6E SWAP2 SWAP1 PUSH2 0xF6C JUMP JUMPDEST PUSH1 0x40 MLOAD DUP1 SWAP2 SUB SWAP1 RETURN JUMPDEST CALLVALUE DUP1 ISZERO PUSH2 0x82 JUMPI PUSH0 DUP1 REVERT JUMPDEST POP PUSH2 0x9D PUSH1 0x4 DUP1 CALLDATASIZE SUB DUP2 ADD SWAP1 PUSH2 0x98 SWAP2 SWAP1 PUSH2 0xFE1 JUMP JUMPDEST PUSH2 0x583 JUMP JUMPDEST STOP JUMPDEST CALLVALUE DUP1 ISZERO PUSH2 0xAA JUMPI PUSH0 DUP1 REVERT JUMPDEST POP PUSH2 0xC5 PUSH1 0x4 DUP1 CALLDATASIZE SUB DUP2 ADD SWAP1 PUSH2 0xC0 SWAP2 SWAP1 PUSH2 0x109C JUMP JUMPDEST PUSH2 0x72C JUMP JUMPDEST STOP JUMPDEST CALLVALUE DUP1 ISZERO PUSH2 0xD2 JUMPI PUSH0 DUP1 REVERT JUMPDEST POP PUSH2 0xDB PUSH2 0x8EB JUMP JUMPDEST PUSH1 0x40 MLOAD PUSH2 0xE8 SWAP2 SWAP1 PUSH2 0x1126 JUMP JUMPDEST PUSH1 0x40 MLOAD DUP1 SWAP2 SUB SWAP1 RETURN JUMPDEST PUSH2 0x10B PUSH1 0x4 DUP1 CALLDATASIZE SUB DUP2 ADD SWAP1 PUSH2 0x106 SWAP2 SWAP1 PUSH2 0x1194 JUMP JUMPDEST PUSH2 0x90F JUMP JUMPDEST STOP JUMPDEST PUSH1 0x60 PUSH0 DUP1 SLOAD DUP1 PUSH1 0x20 MUL PUSH1 0x20 ADD PUSH1 0x40 MLOAD SWAP1 DUP2 ADD PUSH1 0x40 MSTORE DUP1 SWAP3 SWAP2 SWAP1 DUP2 DUP2 MSTORE PUSH1 0x20 ADD PUSH0 SWAP1 JUMPDEST DUP3 DUP3 LT ISZERO PUSH2 0x57A JUMPI DUP4 DUP3 SWAP1 PUSH0 MSTORE PUSH1 0x20 PUSH0 KECCAK256 SWAP1 PUSH1 0xA MUL ADD PUSH1 0x40 MLOAD DUP1 PUSH2 0x1A0 ADD PUSH1 0x40 MSTORE SWAP1 DUP2 PUSH0 DUP3 ADD DUP1 SLOAD PUSH2 0x160 SWAP1 PUSH2 0x121E JUMP JUMPDEST DUP1 PUSH1 0x1F ADD PUSH1 0x20 DUP1 SWAP2 DIV MUL PUSH1 0x20 ADD PUSH1 0x40 MLOAD SWAP1 DUP2 ADD PUSH1 0x40 MSTORE DUP1 SWAP3 SWAP2 SWAP1 DUP2 DUP2 MSTORE PUSH1 0x20 ADD DUP3 DUP1 SLOAD PUSH2 0x18C SWAP1 PUSH2 0x121E JUMP JUMPDEST DUP1 ISZERO PUSH2 0x1D7 JUMPI DUP1 PUSH1 0x1F LT PUSH2 0x1AE JUMPI PUSH2 0x100 DUP1 DUP4 SLOAD DIV MUL DUP4 MSTORE SWAP2 PUSH1 0x20 ADD SWAP2 PUSH2 0x1D7 JUMP JUMPDEST DUP3 ADD SWAP2 SWAP1 PUSH0 MSTORE PUSH1 0x20 PUSH0 KECCAK256 SWAP1 JUMPDEST DUP2 SLOAD DUP2 MSTORE SWAP1 PUSH1 0x1 ADD SWAP1 PUSH1 0x20 ADD DUP1 DUP4 GT PUSH2 0x1BA JUMPI DUP3 SWAP1 SUB PUSH1 0x1F AND DUP3 ADD SWAP2 JUMPDEST POP POP POP POP POP DUP2 MSTORE PUSH1 0x20 ADD PUSH1 0x1 DUP3 ADD DUP1 SLOAD PUSH2 0x1F0 SWAP1 PUSH2 0x121E JUMP JUMPDEST DUP1 PUSH1 0x1F ADD PUSH1 0x20 DUP1 SWAP2 DIV MUL PUSH1 0x20 ADD PUSH1 0x40 MLOAD SWAP1 DUP2 ADD PUSH1 0x40 MSTORE DUP1 SWAP3 SWAP2 SWAP1 DUP2 DUP2 MSTORE PUSH1 0x20 ADD DUP3 DUP1 SLOAD PUSH2 0x21C SWAP1 PUSH2 0x121E JUMP JUMPDEST DUP1 ISZERO PUSH2 0x267 JUMPI DUP1 PUSH1 0x1F LT PUSH2 0x23E JUMPI PUSH2 0x100 DUP1 DUP4 SLOAD DIV MUL DUP4 MSTORE SWAP2 PUSH1 0x20 ADD SWAP2 PUSH2 0x267 JUMP JUMPDEST DUP3 ADD SWAP2 SWAP1 PUSH0 MSTORE PUSH1 0x20 PUSH0 KECCAK256 SWAP1 JUMPDEST DUP2 SLOAD DUP2 MSTORE SWAP1 PUSH1 0x1 ADD SWAP1 PUSH1 0x20 ADD DUP1 DUP4 GT PUSH2 0x24A JUMPI DUP3 SWAP1 SUB PUSH1 0x1F AND DUP3 ADD SWAP2 JUMPDEST POP POP POP POP POP DUP2 MSTORE PUSH1 0x20 ADD PUSH1 0x2 DUP3 ADD DUP1 SLOAD PUSH2 0x280 SWAP1 PUSH2 0x121E JUMP JUMPDEST DUP1 PUSH1 0x1F ADD PUSH1 0x20 DUP1 SWAP2 DIV MUL PUSH1 0x20 ADD PUSH1 0x40 MLOAD SWAP1 DUP2 ADD PUSH1 0x40 MSTORE DUP1 SWAP3 SWAP2 SWAP1 DUP2 DUP2 MSTORE PUSH1 0x20 ADD DUP3 DUP1 SLOAD PUSH2 0x2AC SWAP1 PUSH2 0x121E JUMP JUMPDEST DUP1 ISZERO PUSH2 0x2F7 JUMPI DUP1 PUSH1 0x1F LT PUSH2 0x2CE JUMPI PUSH2 0x100 DUP1 DUP4 SLOAD DIV MUL DUP4 MSTORE SWAP2 PUSH1 0x20 ADD SWAP2 PUSH2 0x2F7 JUMP JUMPDEST DUP3 ADD SWAP2 SWAP1 PUSH0 MSTORE PUSH1 0x20 PUSH0 KECCAK256 SWAP1 JUMPDEST DUP2 SLOAD DUP2 MSTORE SWAP1 PUSH1 0x1 ADD SWAP1 PUSH1 0x20 ADD DUP1 DUP4 GT PUSH2 0x2DA JUMPI DUP3 SWAP1 SUB PUSH1 0x1F AND DUP3 ADD SWAP2 JUMPDEST POP POP POP POP POP DUP2 MSTORE PUSH1 0x20 ADD PUSH1 0x3 DUP3 ADD PUSH0 SWAP1 SLOAD SWAP1 PUSH2 0x100 EXP SWAP1 DIV PUSH1 0xFF AND PUSH1 0xFF AND PUSH1 0xFF AND DUP2 MSTORE PUSH1 0x20 ADD PUSH1 0x4 DUP3 ADD SLOAD DUP2 MSTORE PUSH1 0x20 ADD PUSH1 0x5 DUP3 ADD SLOAD DUP2 MSTORE PUSH1 0x20 ADD PUSH1 0x6 DUP3 ADD DUP1 SLOAD PUSH2 0x340 SWAP1 PUSH2 0x121E JUMP JUMPDEST DUP1 PUSH1 0x1F ADD PUSH1 0x20 DUP1 SWAP2 DIV MUL PUSH1 0x20 ADD PUSH1 0x40 MLOAD SWAP1 DUP2 ADD PUSH1 0x40 MSTORE DUP1 SWAP3 SWAP2 SWAP1 DUP2 DUP2 MSTORE PUSH1 0x20 ADD DUP3 DUP1 SLOAD PUSH2 0x36C SWAP1 PUSH2 0x121E JUMP JUMPDEST DUP1 ISZERO PUSH2 0x3B7 JUMPI DUP1 PUSH1 0x1F LT PUSH2 0x38E JUMPI PUSH2 0x100 DUP1 DUP4 SLOAD DIV MUL DUP4 MSTORE SWAP2 PUSH1 0x20 ADD SWAP2 PUSH2 0x3B7 JUMP JUMPDEST DUP3 ADD SWAP2 SWAP1 PUSH0 MSTORE PUSH1 0x20 PUSH0 KECCAK256 SWAP1 JUMPDEST DUP2 SLOAD DUP2 MSTORE SWAP1 PUSH1 0x1 ADD SWAP1 PUSH1 0x20 ADD DUP1 DUP4 GT PUSH2 0x39A JUMPI DUP3 SWAP1 SUB PUSH1 0x1F AND DUP3 ADD SWAP2 JUMPDEST POP POP POP POP POP DUP2 MSTORE PUSH1 0x20 ADD PUSH1 0x7 DUP3 ADD DUP1 SLOAD PUSH2 0x3D0 SWAP1 PUSH2 0x121E JUMP JUMPDEST DUP1 PUSH1 0x1F ADD PUSH1 0x20 DUP1 SWAP2 DIV MUL PUSH1 0x20 ADD PUSH1 0x40 MLOAD SWAP1 DUP2 ADD PUSH1 0x40 MSTORE DUP1 SWAP3 SWAP2 SWAP1 DUP2 DUP2 MSTORE PUSH1 0x20 ADD DUP3 DUP1 SLOAD PUSH2 0x3FC SWAP1 PUSH2 0x121E JUMP JUMPDEST DUP1 ISZERO PUSH2 0x447 JUMPI DUP1 PUSH1 0x1F LT PUSH2 0x41E JUMPI PUSH2 0x100 DUP1 DUP4 SLOAD DIV MUL DUP4 MSTORE SWAP2 PUSH1 0x20 ADD SWAP2 PUSH2 0x447 JUMP JUMPDEST DUP3 ADD SWAP2 SWAP1 PUSH0 MSTORE PUSH1 0x20 PUSH0 KECCAK256 SWAP1 JUMPDEST DUP2 SLOAD DUP2 MSTORE SWAP1 PUSH1 0x1 ADD SWAP1 PUSH1 0x20 ADD DUP1 DUP4 GT PUSH2 0x42A JUMPI DUP3 SWAP1 SUB PUSH1 0x1F AND DUP3 ADD SWAP2 JUMPDEST POP POP POP POP POP DUP2 MSTORE PUSH1 0x20 ADD PUSH1 0x8 DUP3 ADD DUP1 SLOAD PUSH2 0x460 SWAP1 PUSH2 0x121E JUMP JUMPDEST DUP1 PUSH1 0x1F ADD PUSH1 0x20 DUP1 SWAP2 DIV MUL PUSH1 0x20 ADD PUSH1 0x40 MLOAD SWAP1 DUP2 ADD PUSH1 0x40 MSTORE DUP1 SWAP3 SWAP2 SWAP1 DUP2 DUP2 MSTORE PUSH1 0x20 ADD DUP3 DUP1 SLOAD PUSH2 0x48C SWAP1 PUSH2 0x121E JUMP JUMPDEST DUP1 ISZERO PUSH2 0x4D7 JUMPI DUP1 PUSH1 0x1F LT PUSH2 0x4AE JUMPI PUSH2 0x100 DUP1 DUP4 SLOAD DIV MUL DUP4 MSTORE SWAP2 PUSH1 0x20 ADD SWAP2 PUSH2 0x4D7 JUMP JUMPDEST DUP3 ADD SWAP2 SWAP1 PUSH0 MSTORE PUSH1 0x20 PUSH0 KECCAK256 SWAP1 JUMPDEST DUP2 SLOAD DUP2 MSTORE SWAP1 PUSH1 0x1 ADD SWAP1 PUSH1 0x20 ADD DUP1 DUP4 GT PUSH2 0x4BA JUMPI DUP3 SWAP1 SUB PUSH1 0x1F AND DUP3 ADD SWAP2 JUMPDEST POP POP POP POP POP DUP2 MSTORE PUSH1 0x20 ADD PUSH1 0x9 DUP3 ADD PUSH0 SWAP1 SLOAD SWAP1 PUSH2 0x100 EXP SWAP1 DIV PUSH1 0x3 SIGNEXTEND PUSH1 0x3 SIGNEXTEND PUSH1 0x3 SIGNEXTEND DUP2 MSTORE PUSH1 0x20 ADD PUSH1 0x9 DUP3 ADD PUSH1 0x4 SWAP1 SLOAD SWAP1 PUSH2 0x100 EXP SWAP1 DIV PUSH1 0x3 SIGNEXTEND PUSH1 0x3 SIGNEXTEND PUSH1 0x3 SIGNEXTEND DUP2 MSTORE PUSH1 0x20 ADD PUSH1 0x9 DUP3 ADD PUSH1 0x8 SWAP1 SLOAD SWAP1 PUSH2 0x100 EXP SWAP1 DIV PUSH2 0xFFFF AND PUSH2 0xFFFF AND PUSH2 0xFFFF AND DUP2 MSTORE PUSH1 0x20 ADD PUSH1 0x9 DUP3 ADD PUSH1 0xA SWAP1 SLOAD SWAP1 PUSH2 0x100 EXP SWAP1 DIV PUSH8 0xFFFFFFFFFFFFFFFF AND PUSH8 0xFFFFFFFFFFFFFFFF AND PUSH8 0xFFFFFFFFFFFFFFFF AND DUP2 MSTORE POP POP DUP2 MSTORE PUSH1 0x20 ADD SWAP1 PUSH1 0x1 ADD SWAP1 PUSH2 0x12F JUMP JUMPDEST POP POP POP POP SWAP1 POP SWAP1 JUMP JUMPDEST PUSH32 0x0 PUSH20 0xFFFFFFFFFFFFFFFFFFFFFFFFFFFFFFFFFFFFFFFF AND CALLER PUSH20 0xFFFFFFFFFFFFFFFFFFFFFFFFFFFFFFFFFFFFFFFF AND EQ PUSH2 0x611 JUMPI PUSH1 0x40 MLOAD PUSH32 0x8C379A000000000000000000000000000000000000000000000000000000000 DUP2 MSTORE PUSH1 0x4 ADD PUSH2 0x608 SWAP1 PUSH2 0x12A8 JUMP JUMPDEST PUSH1 0x40 MLOAD DUP1 SWAP2 SUB SWAP1 REVERT JUMPDEST PUSH0 DUP1 SLOAD SWAP1 POP DUP2 LT ISZERO PUSH2 0x699 JUMPI DUP2 PUSH0 DUP3 DUP2 SLOAD DUP2 LT PUSH2 0x631 JUMPI PUSH2 0x630 PUSH2 0x12C6 JUMP JUMPDEST JUMPDEST SWAP1 PUSH0 MSTORE PUSH1 0x20 PUSH0 KECCAK256 SWAP1 PUSH1 0xA MUL ADD DUP2 DUP2 PUSH2 0x649 SWAP2 SWAP1 PUSH2 0x1B3F JUMP JUMPDEST SWAP1 POP POP PUSH32 0xA4D6F49D3A3F50A17C421E5E15907440B40F74DF3251CE8DE5B578C8DAE8CE3 DUP3 DUP1 PUSH0 ADD SWAP1 PUSH2 0x67C SWAP2 SWAP1 PUSH2 0x12FF JUMP JUMPDEST DUP4 PUSH1 0x40 MLOAD PUSH2 0x68C SWAP4 SWAP3 SWAP2 SWAP1 PUSH2 0x1B96 JUMP JUMPDEST PUSH1 0x40 MLOAD DUP1 SWAP2 SUB SWAP1 LOG1 PUSH2 0x728 JUMP JUMPDEST PUSH0 DUP3 SWAP1 DUP1 PUSH1 0x1 DUP2 SLOAD ADD DUP1 DUP3 SSTORE DUP1 SWAP2 POP POP PUSH1 0x1 SWAP1 SUB SWAP1 PUSH0 MSTORE PUSH1 0x20 PUSH0 KECCAK256 SWAP1 PUSH1 0xA MUL ADD PUSH0 SWAP1 SWAP2 SWAP1 SWAP2 SWAP1 SWAP2 POP DUP2 DUP2 PUSH2 0x6CD SWAP2 SWAP1 PUSH2 0x1B3F JUMP JUMPDEST POP POP PUSH32 0xA4D6F49D3A3F50A17C421E5E15907440B40F74DF3251CE8DE5B578C8DAE8CE3 DUP3 DUP1 PUSH0 ADD SWAP1 PUSH2 0x6FF SWAP2 SWAP1 PUSH2 0x12FF JUMP JUMPDEST PUSH1 0x1 PUSH0 DUP1 SLOAD SWAP1 POP PUSH2 0x710 SWAP2 SWAP1 PUSH2 0x1BF3 JUMP JUMPDEST PUSH1 0x40 MLOAD PUSH2 0x71F SWAP4 SWAP3 SWAP2 SWAP1 PUSH2 0x1B96 JUMP JUMPDEST PUSH1 0x40 MLOAD DUP1 SWAP2 SUB SWAP1 LOG1 JUMPDEST POP POP JUMP JUMPDEST PUSH32 0x0 PUSH20 0xFFFFFFFFFFFFFFFFFFFFFFFFFFFFFFFFFFFFFFFF AND CALLER PUSH20 0xFFFFFFFFFFFFFFFFFFFFFFFFFFFFFFFFFFFFFFFF AND EQ PUSH2 0x7BA JUMPI PUSH1 0x40 MLOAD PUSH32 0x8C379A000000000000000000000000000000000000000000000000000000000 DUP2 MSTORE PUSH1 0x4 ADD PUSH2 0x7B1 SWAP1 PUSH2 0x12A8 JUMP JUMPDEST PUSH1 0x40 MLOAD DUP1 SWAP2 SUB SWAP1 REVERT JUMPDEST PUSH0 DUP1 PUSH2 0x7C6 SWAP2 SWAP1 PUSH2 0xAFB JUMP JUMPDEST PUSH0 JUMPDEST DUP3 DUP3 SWAP1 POP DUP2 LT ISZERO PUSH2 0x8AC JUMPI PUSH0 DUP4 DUP4 DUP4 DUP2 DUP2 LT PUSH2 0x7E7 JUMPI PUSH2 0x7E6 PUSH2 0x12C6 JUMP JUMPDEST JUMPDEST SWAP1 POP PUSH1 0x20 MUL DUP2 ADD SWAP1 PUSH2 0x7F9 SWAP2 SWAP1 PUSH2 0x1C26 JUMP JUMPDEST SWAP1 DUP1 PUSH1 0x1 DUP2 SLOAD ADD DUP1 DUP3 SSTORE DUP1 SWAP2 POP POP PUSH1 0x1 SWAP1 SUB SWAP1 PUSH0 MSTORE PUSH1 0x20 PUSH0 KECCAK256 SWAP1 PUSH1 0xA MUL ADD PUSH0 SWAP1 SWAP2 SWAP1 SWAP2 SWAP1 SWAP2 POP DUP2 DUP2 PUSH2 0x82B SWAP2 SWAP1 PUSH2 0x1B3F JUMP JUMPDEST POP POP PUSH32 0xA4D6F49D3A3F50A17C421E5E15907440B40F74DF3251CE8DE5B578C8DAE8CE3 DUP4 DUP4 DUP4 DUP2 DUP2 LT PUSH2 0x861 JUMPI PUSH2 0x860 PUSH2 0x12C6 JUMP JUMPDEST JUMPDEST SWAP1 POP PUSH1 0x20 MUL DUP2 ADD SWAP1 PUSH2 0x873 SWAP2 SWAP1 PUSH2 0x1C26 JUMP JUMPDEST DUP1 PUSH0 ADD SWAP1 PUSH2 0x881 SWAP2 SWAP1 PUSH2 0x12FF JUMP JUMPDEST DUP4 PUSH1 0x40 MLOAD PUSH2 0x891 SWAP4 SWAP3 SWAP2 SWAP1 PUSH2 0x1B96 JUMP JUMPDEST PUSH1 0x40 MLOAD DUP1 SWAP2 SUB SWAP1 LOG1 DUP1 DUP1 PUSH2 0x8A4 SWAP1 PUSH2 0x1C4E JUMP JUMPDEST SWAP2 POP POP PUSH2 0x7C8 JUMP JUMPDEST POP PUSH32 0xA40C5E032E8EB20EE08DDE19BE896FB148E4A96469D586895530042C5293747B DUP3 DUP3 SWAP1 POP PUSH1 0x40 MLOAD PUSH2 0x8DF SWAP2 SWAP1 PUSH2 0x1C95 JUMP JUMPDEST PUSH1 0x40 MLOAD DUP1 SWAP2 SUB SWAP1 LOG1 POP POP JUMP JUMPDEST PUSH32 0x0 DUP2 JUMP JUMPDEST PUSH0 DUP1 DUP1 SLOAD SWAP1 POP SWAP1 POP PUSH0 JUMPDEST PUSH0 DUP1 SLOAD SWAP1 POP DUP2 LT ISZERO PUSH2 0x993 JUMPI DUP5 DUP5 PUSH1 0x40 MLOAD PUSH2 0x935 SWAP3 SWAP2 SWAP1 PUSH2 0x1CDC JUMP JUMPDEST PUSH1 0x40 MLOAD DUP1 SWAP2 SUB SWAP1 KECCAK256 PUSH0 DUP3 DUP2 SLOAD DUP2 LT PUSH2 0x950 JUMPI PUSH2 0x94F PUSH2 0x12C6 JUMP JUMPDEST JUMPDEST SWAP1 PUSH0 MSTORE PUSH1 0x20 PUSH0 KECCAK256 SWAP1 PUSH1 0xA MUL ADD PUSH0 ADD PUSH1 0x40 MLOAD PUSH2 0x96B SWAP2 SWAP1 PUSH2 0x1D86 JUMP JUMPDEST PUSH1 0x40 MLOAD DUP1 SWAP2 SUB SWAP1 KECCAK256 SUB PUSH2 0x980 JUMPI DUP1 SWAP2 POP PUSH2 0x993 JUMP JUMPDEST DUP1 DUP1 PUSH2 0x98B SWAP1 PUSH2 0x1C4E JUMP JUMPDEST SWAP2 POP POP PUSH2 0x919 JUMP JUMPDEST POP PUSH0 DUP1 SLOAD SWAP1 POP DUP2 LT PUSH2 0x9DA JUMPI PUSH1 0x40 MLOAD PUSH32 0x8C379A000000000000000000000000000000000000000000000000000000000 DUP2 MSTORE PUSH1 0x4 ADD PUSH2 0x9D1 SWAP1 PUSH2 0x1DE6 JUMP JUMPDEST PUSH1 0x40 MLOAD DUP1 SWAP2 SUB SWAP1 REVERT JUMPDEST PUSH0 DUP1 DUP3 DUP2 SLOAD DUP2 LT PUSH2 0x9EE JUMPI PUSH2 0x9ED PUSH2 0x12C6 JUMP JUMPDEST JUMPDEST SWAP1 PUSH0 MSTORE PUSH1 0x20 PUSH0 KECCAK256 SWAP1 PUSH1 0xA MUL ADD SWAP1 POP DUP3 DUP2 PUSH1 0x4 ADD SLOAD LT ISZERO PUSH2 0xA43 JUMPI PUSH1 0x40 MLOAD PUSH32 0x8C379A000000000000000000000000000000000000000000000000000000000 DUP2 MSTORE PUSH1 0x4 ADD PUSH2 0xA3A SWAP1 PUSH2 0x1E4E JUMP JUMPDEST PUSH1 0x40 MLOAD DUP1 SWAP2 SUB SWAP1 REVERT JUMPDEST PUSH0 PUSH7 0x38D7EA4C68000 DUP5 PUSH2 0xA57 SWAP2 SWAP1 PUSH2 0x1E6C JUMP JUMPDEST SWAP1 POP DUP1 CALLVALUE LT ISZERO PUSH2 0xA9C JUMPI PUSH1 0x40 MLOAD PUSH32 0x8C379A000000000000000000000000000000000000000000000000000000000 DUP2 MSTORE PUSH1 0x4 ADD PUSH2 0xA93 SWAP1 PUSH2 0x1EF7 JUMP JUMPDEST PUSH1 0x40 MLOAD DUP1 SWAP2 SUB SWAP1 REVERT JUMPDEST DUP4 DUP3 PUSH1 0x4 ADD PUSH0 DUP3 DUP3 SLOAD PUSH2 0xAAF SWAP2 SWAP1 PUSH2 0x1BF3 JUMP JUMPDEST SWAP3 POP POP DUP2 SWAP1 SSTORE POP PUSH32 0xB22D9F7E14059F572D7C180954839D3B0BDBC781AC20FA03D69C29F54CD20FB3 DUP7 DUP7 DUP7 CALLER PUSH1 0x40 MLOAD PUSH2 0xAEB SWAP5 SWAP4 SWAP3 SWAP2 SWAP1 PUSH2 0x1F15 JUMP JUMPDEST PUSH1 0x40 MLOAD DUP1 SWAP2 SUB SWAP1 LOG1 POP POP POP POP POP POP JUMP JUMPDEST POP DUP1 SLOAD PUSH0 DUP3 SSTORE PUSH1 0xA MUL SWAP1 PUSH0 MSTORE PUSH1 0x20 PUSH0 KECCAK256 SWAP1 DUP2 ADD SWAP1 PUSH2 0xB19 SWAP2 SWAP1 PUSH2 0xB1C JUMP JUMPDEST POP JUMP JUMPDEST JUMPDEST DUP1 DUP3 GT ISZERO PUSH2 0xC06 JUMPI PUSH0 DUP1 DUP3 ADD PUSH0 PUSH2 0xB34 SWAP2 SWAP1 PUSH2 0xC0A JUMP JUMPDEST PUSH1 0x1 DUP3 ADD PUSH0 PUSH2 0xB43 SWAP2 SWAP1 PUSH2 0xC0A JUMP JUMPDEST PUSH1 0x2 DUP3 ADD PUSH0 PUSH2 0xB52 SWAP2 SWAP1 PUSH2 0xC0A JUMP JUMPDEST PUSH1 0x3 DUP3 ADD PUSH0 PUSH2 0x100 EXP DUP2 SLOAD SWAP1 PUSH1 0xFF MUL NOT AND SWAP1 SSTORE PUSH1 0x4 DUP3 ADD PUSH0 SWAP1 SSTORE PUSH1 0x5 DUP3 ADD PUSH0 SWAP1 SSTORE PUSH1 0x6 DUP3 ADD PUSH0 PUSH2 0xB82 SWAP2 SWAP1 PUSH2 0xC0A JUMP JUMPDEST PUSH1 0x7 DUP3 ADD PUSH0 PUSH2 0xB91 SWAP2 SWAP1 PUSH2 0xC0A JUMP JUMPDEST PUSH1 0x8 DUP3 ADD PUSH0 PUSH2 0xBA0 SWAP2 SWAP1 PUSH2 0xC0A JUMP JUMPDEST PUSH1 0x9 DUP3 ADD PUSH0 PUSH2 0x100 EXP DUP2 SLOAD SWAP1 PUSH4 0xFFFFFFFF MUL NOT AND SWAP1 SSTORE PUSH1 0x9 DUP3 ADD PUSH1 0x4 PUSH2 0x100 EXP DUP2 SLOAD SWAP1 PUSH4 0xFFFFFFFF MUL NOT AND SWAP1 SSTORE PUSH1 0x9 DUP3 ADD PUSH1 0x8 PUSH2 0x100 EXP DUP2 SLOAD SWAP1 PUSH2 0xFFFF MUL NOT AND SWAP1 SSTORE PUSH1 0x9 DUP3 ADD PUSH1 0xA PUSH2 0x100 EXP DUP2 SLOAD SWAP1 PUSH8 0xFFFFFFFFFFFFFFFF MUL NOT AND SWAP1 SSTORE POP PUSH1 0xA ADD PUSH2 0xB1D JUMP JUMPDEST POP SWAP1 JUMP JUMPDEST POP DUP1 SLOAD PUSH2 0xC16 SWAP1 PUSH2 0x121E JUMP JUMPDEST PUSH0 DUP3 SSTORE DUP1 PUSH1 0x1F LT PUSH2 0xC27 JUMPI POP PUSH2 0xC44 JUMP JUMPDEST PUSH1 0x1F ADD PUSH1 0x20 SWAP1 DIV SWAP1 PUSH0 MSTORE PUSH1 0x20 PUSH0 KECCAK256 SWAP1 DUP2 ADD SWAP1 PUSH2 0xC43 SWAP2 SWAP1 PUSH2 0xC47 JUMP JUMPDEST JUMPDEST POP JUMP JUMPDEST JUMPDEST DUP1 DUP3 GT ISZERO PUSH2 0xC5E JUMPI PUSH0 DUP2 PUSH0 SWAP1 SSTORE POP PUSH1 0x1 ADD PUSH2 0xC48 JUMP JUMPDEST POP SWAP1 JUMP JUMPDEST PUSH0 DUP2 MLOAD SWAP1 POP SWAP2 SWAP1 POP JUMP JUMPDEST PUSH0 DUP3 DUP3 MSTORE PUSH1 0x20 DUP3 ADD SWAP1 POP SWAP3 SWAP2 POP POP JUMP JUMPDEST PUSH0 DUP2 SWAP1 POP PUSH1 0x20 DUP3 ADD SWAP1 POP SWAP2 SWAP1 POP JUMP JUMPDEST PUSH0 DUP2 MLOAD SWAP1 POP SWAP2 SWAP1 POP JUMP JUMPDEST PUSH0 DUP3 DUP3 MSTORE PUSH1 0x20 DUP3 ADD SWAP1 POP SWAP3 SWAP2 POP POP JUMP JUMPDEST PUSH0 JUMPDEST DUP4 DUP2 LT ISZERO PUSH2 0xCC2 JUMPI DUP1 DUP3 ADD MLOAD DUP2 DUP5 ADD MSTORE PUSH1 0x20 DUP2 ADD SWAP1 POP PUSH2 0xCA7 JUMP JUMPDEST PUSH0 DUP5 DUP5 ADD MSTORE POP POP POP POP JUMP JUMPDEST PUSH0 PUSH1 0x1F NOT PUSH1 0x1F DUP4 ADD AND SWAP1 POP SWAP2 SWAP1 POP JUMP JUMPDEST PUSH0 PUSH2 0xCE7 DUP3 PUSH2 0xC8B JUMP JUMPDEST PUSH2 0xCF1 DUP2 DUP6 PUSH2 0xC95 JUMP JUMPDEST SWAP4 POP PUSH2 0xD01 DUP2 DUP6 PUSH1 0x20 DUP7 ADD PUSH2 0xCA5 JUMP JUMPDEST PUSH2 0xD0A DUP2 PUSH2 0xCCD JUMP JUMPDEST DUP5 ADD SWAP2 POP POP SWAP3 SWAP2 POP POP JUMP JUMPDEST PUSH0 PUSH1 0xFF DUP3 AND SWAP1 POP SWAP2 SWAP1 POP JUMP JUMPDEST PUSH2 0xD2A DUP2 PUSH2 0xD15 JUMP JUMPDEST DUP3 MSTORE POP POP JUMP JUMPDEST PUSH0 DUP2 SWAP1 POP SWAP2 SWAP1 POP JUMP JUMPDEST PUSH2 0xD42 DUP2 PUSH2 0xD30 JUMP JUMPDEST DUP3 MSTORE POP POP JUMP JUMPDEST PUSH0 DUP2 PUSH1 0x3 SIGNEXTEND SWAP1 POP SWAP2 SWAP1 POP JUMP JUMPDEST PUSH2 0xD5D DUP2 PUSH2 0xD48 JUMP JUMPDEST DUP3 MSTORE POP POP JUMP JUMPDEST PUSH0 PUSH2 0xFFFF DUP3 AND SWAP1 POP SWAP2 SWAP1 POP JUMP JUMPDEST PUSH2 0xD79 DUP2 PUSH2 0xD63 JUMP JUMPDEST DUP3 MSTORE POP POP JUMP JUMPDEST PUSH0 PUSH8 0xFFFFFFFFFFFFFFFF DUP3 AND SWAP1 POP SWAP2 SWAP1 POP JUMP JUMPDEST PUSH2 0xD9B DUP2 PUSH2 0xD7F JUMP JUMPDEST DUP3 MSTORE POP POP JUMP JUMPDEST PUSH0 PUSH2 0x1A0 DUP4 ADD PUSH0 DUP4 ADD MLOAD DUP5 DUP3 SUB PUSH0 DUP7 ADD MSTORE PUSH2 0xDBC DUP3 DUP3 PUSH2 0xCDD JUMP JUMPDEST SWAP2 POP POP PUSH1 0x20 DUP4 ADD MLOAD DUP5 DUP3 SUB PUSH1 0x20 DUP7 ADD MSTORE PUSH2 0xDD6 DUP3 DUP3 PUSH2 0xCDD JUMP JUMPDEST SWAP2 POP POP PUSH1 0x40 DUP4 ADD MLOAD DUP5 DUP3 SUB PUSH1 0x40 DUP7 ADD MSTORE PUSH2 0xDF0 DUP3 DUP3 PUSH2 0xCDD JUMP JUMPDEST SWAP2 POP POP PUSH1 0x60 DUP4 ADD MLOAD PUSH2 0xE05 PUSH1 0x60 DUP7 ADD DUP3 PUSH2 0xD21 JUMP JUMPDEST POP PUSH1 0x80 DUP4 ADD MLOAD PUSH2 0xE18 PUSH1 0x80 DUP7 ADD DUP3 PUSH2 0xD39 JUMP JUMPDEST POP PUSH1 0xA0 DUP4 ADD MLOAD PUSH2 0xE2B PUSH1 0xA0 DUP7 ADD DUP3 PUSH2 0xD39 JUMP JUMPDEST POP PUSH1 0xC0 DUP4 ADD MLOAD DUP5 DUP3 SUB PUSH1 0xC0 DUP7 ADD MSTORE PUSH2 0xE43 DUP3 DUP3 PUSH2 0xCDD JUMP JUMPDEST SWAP2 POP POP PUSH1 0xE0 DUP4 ADD MLOAD DUP5 DUP3 SUB PUSH1 0xE0 DUP7 ADD MSTORE PUSH2 0xE5D DUP3 DUP3 PUSH2 0xCDD JUMP JUMPDEST SWAP2 POP POP PUSH2 0x100 DUP4 ADD MLOAD DUP5 DUP3 SUB PUSH2 0x100 DUP7 ADD MSTORE PUSH2 0xE79 DUP3 DUP3 PUSH2 0xCDD JUMP JUMPDEST SWAP2 POP POP PUSH2 0x120 DUP4 ADD MLOAD PUSH2 0xE90 PUSH2 0x120 DUP7 ADD DUP3 PUSH2 0xD54 JUMP JUMPDEST POP PUSH2 0x140 DUP4 ADD MLOAD PUSH2 0xEA5 PUSH2 0x140 DUP7 ADD DUP3 PUSH2 0xD54 JUMP JUMPDEST POP PUSH2 0x160 DUP4 ADD MLOAD PUSH2 0xEBA PUSH2 0x160 DUP7 ADD DUP3 PUSH2 0xD70 JUMP JUMPDEST POP PUSH2 0x180 DUP4 ADD MLOAD PUSH2 0xECF PUSH2 0x180 DUP7 ADD DUP3 PUSH2 0xD92 JUMP JUMPDEST POP DUP1 SWAP2 POP POP SWAP3 SWAP2 POP POP JUMP JUMPDEST PUSH0 PUSH2 0xEE5 DUP4 DUP4 PUSH2 0xDA1 JUMP JUMPDEST SWAP1 POP SWAP3 SWAP2 POP POP JUMP JUMPDEST PUSH0 PUSH1 0x20 DUP3 ADD SWAP1 POP SWAP2 SWAP1 POP JUMP JUMPDEST PUSH0 PUSH2 0xF03 DUP3 PUSH2 0xC62 JUMP JUMPDEST PUSH2 0xF0D DUP2 DUP6 PUSH2 0xC6C JUMP JUMPDEST SWAP4 POP DUP4 PUSH1 0x20 DUP3 MUL DUP6 ADD PUSH2 0xF1F DUP6 PUSH2 0xC7C JUMP JUMPDEST DUP1 PUSH0 JUMPDEST DUP6 DUP2 LT ISZERO PUSH2 0xF5A JUMPI DUP5 DUP5 SUB DUP10 MSTORE DUP2 MLOAD PUSH2 0xF3B DUP6 DUP3 PUSH2 0xEDA JUMP JUMPDEST SWAP5 POP PUSH2 0xF46 DUP4 PUSH2 0xEED JUMP JUMPDEST SWAP3 POP PUSH1 0x20 DUP11 ADD SWAP10 POP POP PUSH1 0x1 DUP2 ADD SWAP1 POP PUSH2 0xF22 JUMP JUMPDEST POP DUP3 SWAP8 POP DUP8 SWAP6 POP POP POP POP POP POP SWAP3 SWAP2 POP POP JUMP JUMPDEST PUSH0 PUSH1 0x20 DUP3 ADD SWAP1 POP DUP2 DUP2 SUB PUSH0 DUP4 ADD MSTORE PUSH2 0xF84 DUP2 DUP5 PUSH2 0xEF9 JUMP JUMPDEST SWAP1 POP SWAP3 SWAP2 POP POP JUMP JUMPDEST PUSH0 DUP1 REVERT JUMPDEST PUSH0 DUP1 REVERT JUMPDEST PUSH0 DUP1 REVERT JUMPDEST PUSH0 PUSH2 0x1A0 DUP3 DUP5 SUB SLT ISZERO PUSH2 0xFAE JUMPI PUSH2 0xFAD PUSH2 0xF94 JUMP JUMPDEST JUMPDEST DUP2 SWAP1 POP SWAP3 SWAP2 POP POP JUMP JUMPDEST PUSH2 0xFC0 DUP2 PUSH2 0xD30 JUMP JUMPDEST DUP2 EQ PUSH2 0xFCA JUMPI PUSH0 DUP1 REVERT JUMPDEST POP JUMP JUMPDEST PUSH0 DUP2 CALLDATALOAD SWAP1 POP PUSH2 0xFDB DUP2 PUSH2 0xFB7 JUMP JUMPDEST SWAP3 SWAP2 POP POP JUMP JUMPDEST PUSH0 DUP1 PUSH1 0x40 DUP4 DUP6 SUB SLT ISZERO PUSH2 0xFF7 JUMPI PUSH2 0xFF6 PUSH2 0xF8C JUMP JUMPDEST JUMPDEST PUSH0 DUP4 ADD CALLDATALOAD PUSH8 0xFFFFFFFFFFFFFFFF DUP2 GT ISZERO PUSH2 0x1014 JUMPI PUSH2 0x1013 PUSH2 0xF90 JUMP JUMPDEST JUMPDEST PUSH2 0x1020 DUP6 DUP3 DUP7 ADD PUSH2 0xF98 JUMP JUMPDEST SWAP3 POP POP PUSH1 0x20 PUSH2 0x1031 DUP6 DUP3 DUP7 ADD PUSH2 0xFCD JUMP JUMPDEST SWAP2 POP POP SWAP3 POP SWAP3 SWAP1 POP JUMP JUMPDEST PUSH0 DUP1 REVERT JUMPDEST PUSH0 DUP1 REVERT JUMPDEST PUSH0 DUP1 REVERT JUMPDEST PUSH0 DUP1 DUP4 PUSH1 0x1F DUP5 ADD SLT PUSH2 0x105C JUMPI PUSH2 0x105B PUSH2 0x103B JUMP JUMPDEST JUMPDEST DUP3 CALLDATALOAD SWAP1 POP PUSH8 0xFFFFFFFFFFFFFFFF DUP2 GT ISZERO PUSH2 0x1079 JUMPI PUSH2 0x1078 PUSH2 0x103F JUMP JUMPDEST JUMPDEST PUSH1 0x20 DUP4 ADD SWAP2 POP DUP4 PUSH1 0x20 DUP3 MUL DUP4 ADD GT ISZERO PUSH2 0x1095 JUMPI PUSH2 0x1094 PUSH2 0x1043 JUMP JUMPDEST JUMPDEST SWAP3 POP SWAP3 SWAP1 POP JUMP JUMPDEST PUSH0 DUP1 PUSH1 0x20 DUP4 DUP6 SUB SLT ISZERO PUSH2 0x10B2 JUMPI PUSH2 0x10B1 PUSH2 0xF8C JUMP JUMPDEST JUMPDEST PUSH0 DUP4 ADD CALLDATALOAD PUSH8 0xFFFFFFFFFFFFFFFF DUP2 GT ISZERO PUSH2 0x10CF JUMPI PUSH2 0x10CE PUSH2 0xF90 JUMP JUMPDEST JUMPDEST PUSH2 0x10DB DUP6 DUP3 DUP7 ADD PUSH2 0x1047 JUMP JUMPDEST SWAP3 POP SWAP3 POP POP SWAP3 POP SWAP3 SWAP1 POP JUMP JUMPDEST PUSH0 PUSH20 0xFFFFFFFFFFFFFFFFFFFFFFFFFFFFFFFFFFFFFFFF DUP3 AND SWAP1 POP SWAP2 SWAP1 POP JUMP JUMPDEST PUSH0 PUSH2 0x1110 DUP3 PUSH2 0x10E7 JUMP JUMPDEST SWAP1 POP SWAP2 SWAP1 POP JUMP JUMPDEST PUSH2 0x1120 DUP2 PUSH2 0x1106 JUMP JUMPDEST DUP3 MSTORE POP POP JUMP JUMPDEST PUSH0 PUSH1 0x20 DUP3 ADD SWAP1 POP PUSH2 0x1139 PUSH0 DUP4 ADD DUP5 PUSH2 0x1117 JUMP JUMPDEST SWAP3 SWAP2 POP POP JUMP JUMPDEST PUSH0 DUP1 DUP4 PUSH1 0x1F DUP5 ADD SLT PUSH2 0x1154 JUMPI PUSH2 0x1153 PUSH2 0x103B JUMP JUMPDEST JUMPDEST DUP3 CALLDATALOAD SWAP1 POP PUSH8 0xFFFFFFFFFFFFFFFF DUP2 GT ISZERO PUSH2 0x1171 JUMPI PUSH2 0x1170 PUSH2 0x103F JUMP JUMPDEST JUMPDEST PUSH1 0x20 DUP4 ADD SWAP2 POP DUP4 PUSH1 0x1 DUP3 MUL DUP4 ADD GT ISZERO PUSH2 0x118D JUMPI PUSH2 0x118C PUSH2 0x1043 JUMP JUMPDEST JUMPDEST SWAP3 POP SWAP3 SWAP1 POP JUMP JUMPDEST PUSH0 DUP1 PUSH0 PUSH1 0x40 DUP5 DUP7 SUB SLT ISZERO PUSH2 0x11AB JUMPI PUSH2 0x11AA PUSH2 0xF8C JUMP JUMPDEST JUMPDEST PUSH0 DUP5 ADD CALLDATALOAD PUSH8 0xFFFFFFFFFFFFFFFF DUP2 GT ISZERO PUSH2 0x11C8 JUMPI PUSH2 0x11C7 PUSH2 0xF90 JUMP JUMPDEST JUMPDEST PUSH2 0x11D4 DUP7 DUP3 DUP8 ADD PUSH2 0x113F JUMP JUMPDEST SWAP4 POP SWAP4 POP POP PUSH1 0x20 PUSH2 0x11E7 DUP7 DUP3 DUP8 ADD PUSH2 0xFCD JUMP JUMPDEST SWAP2 POP POP SWAP3 POP SWAP3 POP SWAP3 JUMP JUMPDEST PUSH32 0x4E487B7100000000000000000000000000000000000000000000000000000000 PUSH0 MSTORE PUSH1 0x22 PUSH1 0x4 MSTORE PUSH1 0x24 PUSH0 REVERT JUMPDEST PUSH0 PUSH1 0x2 DUP3 DIV SWAP1 POP PUSH1 0x1 DUP3 AND DUP1 PUSH2 0x1235 JUMPI PUSH1 0x7F DUP3 AND SWAP2 POP JUMPDEST PUSH1 0x20 DUP3 LT DUP2 SUB PUSH2 0x1248 JUMPI PUSH2 0x1247 PUSH2 0x11F1 JUMP JUMPDEST JUMPDEST POP SWAP2 SWAP1 POP JUMP JUMPDEST PUSH0 DUP3 DUP3 MSTORE PUSH1 0x20 DUP3 ADD SWAP1 POP SWAP3 SWAP2 POP POP JUMP JUMPDEST PUSH32 0x6E6F74206F776E65720000000000000000000000000000000000000000000000 PUSH0 DUP3 ADD MSTORE POP JUMP JUMPDEST PUSH0 PUSH2 0x1292 PUSH1 0x9 DUP4 PUSH2 0x124E JUMP JUMPDEST SWAP2 POP PUSH2 0x129D DUP3 PUSH2 0x125E JUMP JUMPDEST PUSH1 0x20 DUP3 ADD SWAP1 POP SWAP2 SWAP1 POP JUMP JUMPDEST PUSH0 PUSH1 0x20 DUP3 ADD SWAP1 POP DUP2 DUP2 SUB PUSH0 DUP4 ADD MSTORE PUSH2 0x12BF DUP2 PUSH2 0x1286 JUMP JUMPDEST SWAP1 POP SWAP2 SWAP1 POP JUMP JUMPDEST PUSH32 0x4E487B7100000000000000000000000000000000000000000000000000000000 PUSH0 MSTORE PUSH1 0x32 PUSH1 0x4 MSTORE PUSH1 0x24 PUSH0 REVERT JUMPDEST PUSH0 DUP1 REVERT JUMPDEST PUSH0 DUP1 REVERT JUMPDEST PUSH0 DUP1 REVERT JUMPDEST PUSH0 DUP1 DUP4 CALLDATALOAD PUSH1 0x1 PUSH1 0x20 SUB DUP5 CALLDATASIZE SUB SUB DUP2 SLT PUSH2 0x131B JUMPI PUSH2 0x131A PUSH2 0x12F3 JUMP JUMPDEST JUMPDEST DUP1 DUP5 ADD SWAP3 POP DUP3 CALLDATALOAD SWAP2 POP PUSH8 0xFFFFFFFFFFFFFFFF DUP3 GT ISZERO PUSH2 0x133D JUMPI PUSH2 0x133C PUSH2 0x12F7 JUMP JUMPDEST JUMPDEST PUSH1 0x20 DUP4 ADD SWAP3 POP PUSH1 0x1 DUP3 MUL CALLDATASIZE SUB DUP4 SGT ISZERO PUSH2 0x1359 JUMPI PUSH2 0x1358 PUSH2 0x12FB JUMP JUMPDEST JUMPDEST POP SWAP3 POP SWAP3 SWAP1 POP JUMP JUMPDEST PUSH0 DUP3 SWAP1 POP SWAP3 SWAP2 POP POP JUMP JUMPDEST PUSH32 0x4E487B7100000000000000000000000000000000000000000000000000000000 PUSH0 MSTORE PUSH1 0x41 PUSH1 0x4 MSTORE PUSH1 0x24 PUSH0 REVERT JUMPDEST PUSH0 DUP2 SWAP1 POP DUP2 PUSH0 MSTORE PUSH1 0x20 PUSH0 KECCAK256 SWAP1 POP SWAP2 SWAP1 POP JUMP JUMPDEST PUSH0 PUSH1 0x20 PUSH1 0x1F DUP4 ADD DIV SWAP1 POP SWAP2 SWAP1 POP JUMP JUMPDEST PUSH0 DUP3 DUP3 SHL SWAP1 POP SWAP3 SWAP2 POP POP JUMP JUMPDEST PUSH0 PUSH1 0x8 DUP4 MUL PUSH2 0x13F4 PUSH32 0xFFFFFFFFFFFFFFFFFFFFFFFFFFFFFFFFFFFFFFFFFFFFFFFFFFFFFFFFFFFFFFFF DUP3 PUSH2 0x13B9 JUMP JUMPDEST PUSH2 0x13FE DUP7 DUP4 PUSH2 0x13B9 JUMP JUMPDEST SWAP6 POP DUP1 NOT DUP5 AND SWAP4 POP DUP1 DUP7 AND DUP5 OR SWAP3 POP POP POP SWAP4 SWAP3 POP POP POP JUMP JUMPDEST PUSH0 DUP2 SWAP1 POP SWAP2 SWAP1 POP JUMP JUMPDEST PUSH0 PUSH2 0x1439 PUSH2 0x1434 PUSH2 0x142F DUP5 PUSH2 0xD30 JUMP JUMPDEST PUSH2 0x1416 JUMP JUMPDEST PUSH2 0xD30 JUMP JUMPDEST SWAP1 POP SWAP2 SWAP1 POP JUMP JUMPDEST PUSH0 DUP2 SWAP1 POP SWAP2 SWAP1 POP JUMP JUMPDEST PUSH2 0x1452 DUP4 PUSH2 0x141F JUMP JUMPDEST PUSH2 0x1466 PUSH2 0x145E DUP3 PUSH2 0x1440 JUMP JUMPDEST DUP5 DUP5 SLOAD PUSH2 0x13C5 JUMP JUMPDEST DUP3 SSTORE POP POP POP POP JUMP JUMPDEST PUSH0 SWAP1 JUMP JUMPDEST PUSH2 0x147A PUSH2 0x146E JUMP JUMPDEST PUSH2 0x1485 DUP2 DUP5 DUP5 PUSH2 0x1449 JUMP JUMPDEST POP POP POP JUMP JUMPDEST JUMPDEST DUP2 DUP2 LT ISZERO PUSH2 0x14A8 JUMPI PUSH2 0x149D PUSH0 DUP3 PUSH2 0x1472 JUMP JUMPDEST PUSH1 0x1 DUP2 ADD SWAP1 POP PUSH2 0x148B JUMP JUMPDEST POP POP JUMP JUMPDEST PUSH1 0x1F DUP3 GT ISZERO PUSH2 0x14ED JUMPI PUSH2 0x14BE DUP2 PUSH2 0x1398 JUMP JUMPDEST PUSH2 0x14C7 DUP5 PUSH2 0x13AA JUMP JUMPDEST DUP2 ADD PUSH1 0x20 DUP6 LT ISZERO PUSH2 0x14D6 JUMPI DUP2 SWAP1 POP JUMPDEST PUSH2 0x14EA PUSH2 0x14E2 DUP6 PUSH2 0x13AA JUMP JUMPDEST DUP4 ADD DUP3 PUSH2 0x148A JUMP JUMPDEST POP POP JUMPDEST POP POP POP JUMP JUMPDEST PUSH0 DUP3 DUP3 SHR SWAP1 POP SWAP3 SWAP2 POP POP JUMP JUMPDEST PUSH0 PUSH2 0x150D PUSH0 NOT DUP5 PUSH1 0x8 MUL PUSH2 0x14F2 JUMP JUMPDEST NOT DUP1 DUP4 AND SWAP2 POP POP SWAP3 SWAP2 POP POP JUMP JUMPDEST PUSH0 PUSH2 0x1525 DUP4 DUP4 PUSH2 0x14FE JUMP JUMPDEST SWAP2 POP DUP3 PUSH1 0x2 MUL DUP3 OR SWAP1 POP SWAP3 SWAP2 POP POP JUMP JUMPDEST PUSH2 0x153F DUP4 DUP4 PUSH2 0x1361 JUMP JUMPDEST PUSH8 0xFFFFFFFFFFFFFFFF DUP2 GT ISZERO PUSH2 0x1558 JUMPI PUSH2 0x1557 PUSH2 0x136B JUMP JUMPDEST JUMPDEST PUSH2 0x1562 DUP3 SLOAD PUSH2 0x121E JUMP JUMPDEST PUSH2 0x156D DUP3 DUP3 DUP6 PUSH2 0x14AC JUMP JUMPDEST PUSH0 PUSH1 0x1F DUP4 GT PUSH1 0x1 DUP2 EQ PUSH2 0x159A JUMPI PUSH0 DUP5 ISZERO PUSH2 0x1588 JUMPI DUP3 DUP8 ADD CALLDATALOAD SWAP1 POP JUMPDEST PUSH2 0x1592 DUP6 DUP3 PUSH2 0x151A JUMP JUMPDEST DUP7 SSTORE POP PUSH2 0x15F9 JUMP JUMPDEST PUSH1 0x1F NOT DUP5 AND PUSH2 0x15A8 DUP7 PUSH2 0x1398 JUMP JUMPDEST PUSH0 JUMPDEST DUP3 DUP2 LT ISZERO PUSH2 0x15CF JUMPI DUP5 DUP10 ADD CALLDATALOAD DUP3 SSTORE PUSH1 0x1 DUP3 ADD SWAP2 POP PUSH1 0x20 DUP6 ADD SWAP5 POP PUSH1 0x20 DUP2 ADD SWAP1 POP PUSH2 0x15AA JUMP JUMPDEST DUP7 DUP4 LT ISZERO PUSH2 0x15EC JUMPI DUP5 DUP10 ADD CALLDATALOAD PUSH2 0x15E8 PUSH1 0x1F DUP10 AND DUP3 PUSH2 0x14FE JUMP JUMPDEST DUP4 SSTORE POP JUMPDEST PUSH1 0x1 PUSH1 0x2 DUP9 MUL ADD DUP9 SSTORE POP POP POP JUMPDEST POP POP POP POP POP POP POP JUMP JUMPDEST PUSH2 0x160D DUP4 DUP4 DUP4 PUSH2 0x1535 JUMP JUMPDEST POP POP POP JUMP JUMPDEST PUSH2 0x161B DUP2 PUSH2 0xD15 JUMP JUMPDEST DUP2 EQ PUSH2 0x1625 JUMPI PUSH0 DUP1 REVERT JUMPDEST POP JUMP JUMPDEST PUSH0 DUP2 CALLDATALOAD PUSH2 0x1634 DUP2 PUSH2 0x1612 JUMP JUMPDEST DUP1 SWAP2 POP POP SWAP2 SWAP1 POP JUMP JUMPDEST PUSH0 DUP2 PUSH0 SHL SWAP1 POP SWAP2 SWAP1 POP JUMP JUMPDEST PUSH0 PUSH1 0xFF PUSH2 0x1654 DUP5 PUSH2 0x163D JUMP JUMPDEST SWAP4 POP DUP1 NOT DUP4 AND SWAP3 POP DUP1 DUP5 AND DUP4 OR SWAP2 POP POP SWAP3 SWAP2 POP POP JUMP JUMPDEST PUSH0 PUSH2 0x1684 PUSH2 0x167F PUSH2 0x167A DUP5 PUSH2 0xD15 JUMP JUMPDEST PUSH2 0x1416 JUMP JUMPDEST PUSH2 0xD15 JUMP JUMPDEST SWAP1 POP SWAP2 SWAP1 POP JUMP JUMPDEST PUSH0 DUP2 SWAP1 POP SWAP2 SWAP1 POP JUMP JUMPDEST PUSH2 0x169D DUP3 PUSH2 0x166A JUMP JUMPDEST PUSH2 0x16B0 PUSH2 0x16A9 DUP3 PUSH2 0x168B JUMP JUMPDEST DUP4 SLOAD PUSH2 0x1648 JUMP JUMPDEST DUP3 SSTORE POP POP POP JUMP JUMPDEST PUSH0 DUP2 CALLDATALOAD PUSH2 0x16C3 DUP2 PUSH2 0xFB7 JUMP JUMPDEST DUP1 SWAP2 POP POP SWAP2 SWAP1 POP JUMP JUMPDEST PUSH0 PUSH32 0xFFFFFFFFFFFFFFFFFFFFFFFFFFFFFFFFFFFFFFFFFFFFFFFFFFFFFFFFFFFFFFFF PUSH2 0x16F7 DUP5 PUSH2 0x163D JUMP JUMPDEST SWAP4 POP DUP1 NOT DUP4 AND SWAP3 POP DUP1 DUP5 AND DUP4 OR SWAP2 POP POP SWAP3 SWAP2 POP POP JUMP JUMPDEST PUSH2 0x1716 DUP3 PUSH2 0x141F JUMP JUMPDEST PUSH2 0x1729 PUSH2 0x1722 DUP3 PUSH2 0x1440 JUMP JUMPDEST DUP4 SLOAD PUSH2 0x16CC JUMP JUMPDEST DUP3 SSTORE POP POP POP JUMP JUMPDEST PUSH2 0x1739 DUP2 PUSH2 0xD48 JUMP JUMPDEST DUP2 EQ PUSH2 0x1743 JUMPI PUSH0 DUP1 REVERT JUMPDEST POP JUMP JUMPDEST PUSH0 DUP2 CALLDATALOAD PUSH2 0x1752 DUP2 PUSH2 0x1730 JUMP JUMPDEST DUP1 SWAP2 POP POP SWAP2 SWAP1 POP JUMP JUMPDEST PUSH0 PUSH4 0xFFFFFFFF PUSH2 0x176A DUP5 PUSH2 0x163D JUMP JUMPDEST SWAP4 POP DUP1 NOT DUP4 AND SWAP3 POP DUP1 DUP5 AND DUP4 OR SWAP2 POP POP SWAP3 SWAP2 POP POP JUMP JUMPDEST PUSH0 PUSH2 0x179A PUSH2 0x1795 PUSH2 0x1790 DUP5 PUSH2 0xD48 JUMP JUMPDEST PUSH2 0x1416 JUMP JUMPDEST PUSH2 0xD48 JUMP JUMPDEST SWAP1 POP SWAP2 SWAP1 POP JUMP JUMPDEST PUSH0 DUP2 SWAP1 POP SWAP2 SWAP1 POP JUMP JUMPDEST PUSH2 0x17B3 DUP3 PUSH2 0x1780 JUMP JUMPDEST PUSH2 0x17C6 PUSH2 0x17BF DUP3 PUSH2 0x17A1 JUMP JUMPDEST DUP4 SLOAD PUSH2 0x175B JUMP JUMPDEST DUP3 SSTORE POP POP POP JUMP JUMPDEST PUSH0 DUP2 PUSH1 0x20 SHL SWAP1 POP SWAP2 SWAP1 POP JUMP JUMPDEST PUSH0 PUSH8 0xFFFFFFFF00000000 PUSH2 0x17EC DUP5 PUSH2 0x17CD JUMP JUMPDEST SWAP4 POP DUP1 NOT DUP4 AND SWAP3 POP DUP1 DUP5 AND DUP4 OR SWAP2 POP POP SWAP3 SWAP2 POP POP JUMP JUMPDEST PUSH2 0x180B DUP3 PUSH2 0x1780 JUMP JUMPDEST PUSH2 0x181E PUSH2 0x1817 DUP3 PUSH2 0x17A1 JUMP JUMPDEST DUP4 SLOAD PUSH2 0x17D9 JUMP JUMPDEST DUP3 SSTORE POP POP POP JUMP JUMPDEST PUSH2 0x182E DUP2 PUSH2 0xD63 JUMP JUMPDEST DUP2 EQ PUSH2 0x1838 JUMPI PUSH0 DUP1 REVERT JUMPDEST POP JUMP JUMPDEST PUSH0 DUP2 CALLDATALOAD PUSH2 0x1847 DUP2 PUSH2 0x1825 JUMP JUMPDEST DUP1 SWAP2 POP POP SWAP2 SWAP1 POP JUMP JUMPDEST PUSH0 DUP2 PUSH1 0x40 SHL SWAP1 POP SWAP2 SWAP1 POP JUMP JUMPDEST PUSH0 PUSH10 0xFFFF0000000000000000 PUSH2 0x1871 DUP5 PUSH2 0x1850 JUMP JUMPDEST SWAP4 POP DUP1 NOT DUP4 AND SWAP3 POP DUP1 DUP5 AND DUP4 OR SWAP2 POP POP SWAP3 SWAP2 POP POP JUMP JUMPDEST PUSH0 PUSH2 0x18A1 PUSH2 0x189C PUSH2 0x1897 DUP5 PUSH2 0xD63 JUMP JUMPDEST PUSH2 0x1416 JUMP JUMPDEST PUSH2 0xD63 JUMP JUMPDEST SWAP1 POP SWAP2 SWAP1 POP JUMP JUMPDEST PUSH0 DUP2 SWAP1 POP SWAP2 SWAP1 POP JUMP JUMPDEST PUSH2 0x18BA DUP3 PUSH2 0x1887 JUMP JUMPDEST PUSH2 0x18CD PUSH2 0x18C6 DUP3 PUSH2 0x18A8 JUMP JUMPDEST DUP4 SLOAD PUSH2 0x185C JUMP JUMPDEST DUP3 SSTORE POP POP POP JUMP JUMPDEST PUSH2 0x18DD DUP2 PUSH2 0xD7F JUMP JUMPDEST DUP2 EQ PUSH2 0x18E7 JUMPI PUSH0 DUP1 REVERT JUMPDEST POP JUMP JUMPDEST PUSH0 DUP2 CALLDATALOAD PUSH2 0x18F6 DUP2 PUSH2 0x18D4 JUMP JUMPDEST DUP1 SWAP2 POP POP SWAP2 SWAP1 POP JUMP JUMPDEST PUSH0 DUP2 PUSH1 0x50 SHL SWAP1 POP SWAP2 SWAP1 POP JUMP JUMPDEST PUSH0 PUSH18 0xFFFFFFFFFFFFFFFF00000000000000000000 PUSH2 0x1928 DUP5 PUSH2 0x18FF JUMP JUMPDEST SWAP4 POP DUP1 NOT DUP4 AND SWAP3 POP DUP1 DUP5 AND DUP4 OR SWAP2 POP POP SWAP3 SWAP2 POP POP JUMP JUMPDEST PUSH0 PUSH2 0x1958 PUSH2 0x1953 PUSH2 0x194E DUP5 PUSH2 0xD7F JUMP JUMPDEST PUSH2 0x1416 JUMP JUMPDEST PUSH2 0xD7F JUMP JUMPDEST SWAP1 POP SWAP2 SWAP1 POP JUMP JUMPDEST PUSH0 DUP2 SWAP1 POP SWAP2 SWAP1 POP JUMP JUMPDEST PUSH2 0x1971 DUP3 PUSH2 0x193E JUMP JUMPDEST PUSH2 0x1984 PUSH2 0x197D DUP3 PUSH2 0x195F JUMP JUMPDEST DUP4 SLOAD PUSH2 0x190B JUMP JUMPDEST DUP3 SSTORE POP POP POP JUMP JUMPDEST PUSH0 DUP2 ADD PUSH0 DUP4 ADD PUSH2 0x199B DUP2 DUP6 PUSH2 0x12FF JUMP JUMPDEST PUSH2 0x19A6 DUP2 DUP4 DUP7 PUSH2 0x1602 JUMP JUMPDEST POP POP POP POP PUSH1 0x1 DUP2 ADD PUSH1 0x20 DUP4 ADD PUSH2 0x19BC DUP2 DUP6 PUSH2 0x12FF JUMP JUMPDEST PUSH2 0x19C7 DUP2 DUP4 DUP7 PUSH2 0x1602 JUMP JUMPDEST POP POP POP POP PUSH1 0x2 DUP2 ADD PUSH1 0x40 DUP4 ADD PUSH2 0x19DD DUP2 DUP6 PUSH2 0x12FF JUMP JUMPDEST PUSH2 0x19E8 DUP2 DUP4 DUP7 PUSH2 0x1602 JUMP JUMPDEST POP POP POP POP PUSH1 0x3 DUP2 ADD PUSH1 0x60 DUP4 ADD DUP1 PUSH2 0x19FE DUP2 PUSH2 0x1628 JUMP JUMPDEST SWAP1 POP PUSH2 0x1A0A DUP2 DUP5 PUSH2 0x1694 JUMP JUMPDEST POP POP POP PUSH1 0x4 DUP2 ADD PUSH1 0x80 DUP4 ADD DUP1 PUSH2 0x1A1F DUP2 PUSH2 0x16B7 JUMP JUMPDEST SWAP1 POP PUSH2 0x1A2B DUP2 DUP5 PUSH2 0x170D JUMP JUMPDEST POP POP POP PUSH1 0x5 DUP2 ADD PUSH1 0xA0 DUP4 ADD DUP1 PUSH2 0x1A40 DUP2 PUSH2 0x16B7 JUMP JUMPDEST SWAP1 POP PUSH2 0x1A4C DUP2 DUP5 PUSH2 0x170D JUMP JUMPDEST POP POP POP PUSH1 0x6 DUP2 ADD PUSH1 0xC0 DUP4 ADD PUSH2 0x1A61 DUP2 DUP6 PUSH2 0x12FF JUMP JUMPDEST PUSH2 0x1A6C DUP2 DUP4 DUP7 PUSH2 0x1602 JUMP JUMPDEST POP POP POP POP PUSH1 0x7 DUP2 ADD PUSH1 0xE0 DUP4 ADD PUSH2 0x1A82 DUP2 DUP6 PUSH2 0x12FF JUMP JUMPDEST PUSH2 0x1A8D DUP2 DUP4 DUP7 PUSH2 0x1602 JUMP JUMPDEST POP POP POP POP PUSH1 0x8 DUP2 ADD PUSH2 0x100 DUP4 ADD PUSH2 0x1AA4 DUP2 DUP6 PUSH2 0x12FF JUMP JUMPDEST PUSH2 0x1AAF DUP2 DUP4 DUP7 PUSH2 0x1602 JUMP JUMPDEST POP POP POP POP PUSH1 0x9 DUP2 ADD PUSH2 0x120 DUP4 ADD DUP1 PUSH2 0x1AC6 DUP2 PUSH2 0x1746 JUMP JUMPDEST SWAP1 POP PUSH2 0x1AD2 DUP2 DUP5 PUSH2 0x17AA JUMP JUMPDEST POP POP POP PUSH1 0x9 DUP2 ADD PUSH2 0x140 DUP4 ADD DUP1 PUSH2 0x1AE8 DUP2 PUSH2 0x1746 JUMP JUMPDEST SWAP1 POP PUSH2 0x1AF4 DUP2 DUP5 PUSH2 0x1802 JUMP JUMPDEST POP POP POP PUSH1 0x9 DUP2 ADD PUSH2 0x160 DUP4 ADD DUP1 PUSH2 0x1B0A DUP2 PUSH2 0x183B JUMP JUMPDEST SWAP1 POP PUSH2 0x1B16 DUP2 DUP5 PUSH2 0x18B1 JUMP JUMPDEST POP POP POP PUSH1 0x9 DUP2 ADD PUSH2 0x180 DUP4 ADD DUP1 PUSH2 0x1B2C DUP2 PUSH2 0x18EA JUMP JUMPDEST SWAP1 POP PUSH2 0x1B38 DUP2 DUP5 PUSH2 0x1968 JUMP JUMPDEST POP POP POP POP POP JUMP JUMPDEST PUSH2 0x1B49 DUP3 DUP3 PUSH2 0x198B JUMP JUMPDEST POP POP JUMP JUMPDEST DUP3 DUP2 DUP4 CALLDATACOPY PUSH0 DUP4 DUP4 ADD MSTORE POP POP POP JUMP JUMPDEST PUSH0 PUSH2 0x1B66 DUP4 DUP6 PUSH2 0x124E JUMP JUMPDEST SWAP4 POP PUSH2 0x1B73 DUP4 DUP6 DUP5 PUSH2 0x1B4D JUMP JUMPDEST PUSH2 0x1B7C DUP4 PUSH2 0xCCD JUMP JUMPDEST DUP5 ADD SWAP1 POP SWAP4 SWAP3 POP POP POP JUMP JUMPDEST PUSH2 0x1B90 DUP2 PUSH2 0xD30 JUMP JUMPDEST DUP3 MSTORE POP POP JUMP JUMPDEST PUSH0 PUSH1 0x40 DUP3 ADD SWAP1 POP DUP2 DUP2 SUB PUSH0 DUP4 ADD MSTORE PUSH2 0x1BAF DUP2 DUP6 DUP8 PUSH2 0x1B5B JUMP JUMPDEST SWAP1 POP PUSH2 0x1BBE PUSH1 0x20 DUP4 ADD DUP5 PUSH2 0x1B87 JUMP JUMPDEST SWAP5 SWAP4 POP POP POP POP JUMP JUMPDEST PUSH32 0x4E487B7100000000000000000000000000000000000000000000000000000000 PUSH0 MSTORE PUSH1 0x11 PUSH1 0x4 MSTORE PUSH1 0x24 PUSH0 REVERT JUMPDEST PUSH0 PUSH2 0x1BFD DUP3 PUSH2 0xD30 JUMP JUMPDEST SWAP2 POP PUSH2 0x1C08 DUP4 PUSH2 0xD30 JUMP JUMPDEST SWAP3 POP DUP3 DUP3 SUB SWAP1 POP DUP2 DUP2 GT ISZERO PUSH2 0x1C20 JUMPI PUSH2 0x1C1F PUSH2 0x1BC6 JUMP JUMPDEST JUMPDEST SWAP3 SWAP2 POP POP JUMP JUMPDEST PUSH0 DUP3 CALLDATALOAD PUSH1 0x1 PUSH2 0x1A0 SUB DUP4 CALLDATASIZE SUB SUB DUP2 SLT PUSH2 0x1C42 JUMPI PUSH2 0x1C41 PUSH2 0x12F3 JUMP JUMPDEST JUMPDEST DUP1 DUP4 ADD SWAP2 POP POP SWAP3 SWAP2 POP POP JUMP JUMPDEST PUSH0 PUSH2 0x1C58 DUP3 PUSH2 0xD30 JUMP JUMPDEST SWAP2 POP PUSH32 0xFFFFFFFFFFFFFFFFFFFFFFFFFFFFFFFFFFFFFFFFFFFFFFFFFFFFFFFFFFFFFFFF DUP3 SUB PUSH2 0x1C8A JUMPI PUSH2 0x1C89 PUSH2 0x1BC6 JUMP JUMPDEST JUMPDEST PUSH1 0x1 DUP3 ADD SWAP1 POP SWAP2 SWAP1 POP JUMP JUMPDEST PUSH0 PUSH1 0x20 DUP3 ADD SWAP1 POP PUSH2 0x1CA8 PUSH0 DUP4 ADD DUP5 PUSH2 0x1B87 JUMP JUMPDEST SWAP3 SWAP2 POP POP JUMP JUMPDEST PUSH0 DUP2 SWAP1 POP SWAP3 SWAP2 POP POP JUMP JUMPDEST PUSH0 PUSH2 0x1CC3 DUP4 DUP6 PUSH2 0x1CAE JUMP JUMPDEST SWAP4 POP PUSH2 0x1CD0 DUP4 DUP6 DUP5 PUSH2 0x1B4D JUMP JUMPDEST DUP3 DUP5 ADD SWAP1 POP SWAP4 SWAP3 POP POP POP JUMP JUMPDEST PUSH0 PUSH2 0x1CE8 DUP3 DUP5 DUP7 PUSH2 0x1CB8 JUMP JUMPDEST SWAP2 POP DUP2 SWAP1 POP SWAP4 SWAP3 POP POP POP JUMP JUMPDEST PUSH0 DUP2 SWAP1 POP DUP2 PUSH0 MSTORE PUSH1 0x20 PUSH0 KECCAK256 SWAP1 POP SWAP2 SWAP1 POP JUMP JUMPDEST PUSH0 DUP2 SLOAD PUSH2 0x1D12 DUP2 PUSH2 0x121E JUMP JUMPDEST PUSH2 0x1D1C DUP2 DUP7 PUSH2 0x1CAE JUMP JUMPDEST SWAP5 POP PUSH1 0x1 DUP3 AND PUSH0 DUP2 EQ PUSH2 0x1D36 JUMPI PUSH1 0x1 DUP2 EQ PUSH2 0x1D4B JUMPI PUSH2 0x1D7D JUMP JUMPDEST PUSH1 0xFF NOT DUP4 AND DUP7 MSTORE DUP2 ISZERO ISZERO DUP3 MUL DUP7 ADD SWAP4 POP PUSH2 0x1D7D JUMP JUMPDEST PUSH2 0x1D54 DUP6 PUSH2 0x1CF4 JUMP JUMPDEST PUSH0 JUMPDEST DUP4 DUP2 LT ISZERO PUSH2 0x1D75 JUMPI DUP2 SLOAD DUP2 DUP10 ADD MSTORE PUSH1 0x1 DUP3 ADD SWAP2 POP PUSH1 0x20 DUP2 ADD SWAP1 POP PUSH2 0x1D56 JUMP JUMPDEST DUP4 DUP9 ADD SWAP6 POP POP POP JUMPDEST POP POP POP SWAP3 SWAP2 POP POP JUMP JUMPDEST PUSH0 PUSH2 0x1D91 DUP3 DUP5 PUSH2 0x1D06 JUMP JUMPDEST SWAP2 POP DUP2 SWAP1 POP SWAP3 SWAP2 POP POP JUMP JUMPDEST PUSH32 0x50726F7065727479206E6F7420666F756E640000000000000000000000000000 PUSH0 DUP3 ADD MSTORE POP JUMP JUMPDEST PUSH0 PUSH2 0x1DD0 PUSH1 0x12 DUP4 PUSH2 0x124E JUMP JUMPDEST SWAP2 POP PUSH2 0x1DDB DUP3 PUSH2 0x1D9C JUMP JUMPDEST PUSH1 0x20 DUP3 ADD SWAP1 POP SWAP2 SWAP1 POP JUMP JUMPDEST PUSH0 PUSH1 0x20 DUP3 ADD SWAP1 POP DUP2 DUP2 SUB PUSH0 DUP4 ADD MSTORE PUSH2 0x1DFD DUP2 PUSH2 0x1DC4 JUMP JUMPDEST SWAP1 POP SWAP2 SWAP1 POP JUMP JUMPDEST PUSH32 0x4E6F7420656E6F75676820746F6B656E7320617661696C61626C650000000000 PUSH0 DUP3 ADD MSTORE POP JUMP JUMPDEST PUSH0 PUSH2 0x1E38 PUSH1 0x1B DUP4 PUSH2 0x124E JUMP JUMPDEST SWAP2 POP PUSH2 0x1E43 DUP3 PUSH2 0x1E04 JUMP JUMPDEST PUSH1 0x20 DUP3 ADD SWAP1 POP SWAP2 SWAP1 POP JUMP JUMPDEST PUSH0 PUSH1 0x20 DUP3 ADD SWAP1 POP DUP2 DUP2 SUB PUSH0 DUP4 ADD MSTORE PUSH2 0x1E65 DUP2 PUSH2 0x1E2C JUMP JUMPDEST SWAP1 POP SWAP2 SWAP1 POP JUMP JUMPDEST PUSH0 PUSH2 0x1E76 DUP3 PUSH2 0xD30 JUMP JUMPDEST SWAP2 POP PUSH2 0x1E81 DUP4 PUSH2 0xD30 JUMP JUMPDEST SWAP3 POP DUP3 DUP3 MUL PUSH2 0x1E8F DUP2 PUSH2 0xD30 JUMP JUMPDEST SWAP2 POP DUP3 DUP3 DIV DUP5 EQ DUP4 ISZERO OR PUSH2 0x1EA6 JUMPI PUSH2 0x1EA5 PUSH2 0x1BC6 JUMP JUMPDEST JUMPDEST POP SWAP3 SWAP2 POP POP JUMP JUMPDEST PUSH32 0x496E73756666696369656E742066756E64732073656E74000000000000000000 PUSH0 DUP3 ADD MSTORE POP JUMP JUMPDEST PUSH0 PUSH2 0x1EE1 PUSH1 0x17 DUP4 PUSH2 0x124E JUMP JUMPDEST SWAP2 POP PUSH2 0x1EEC DUP3 PUSH2 0x1EAD JUMP JUMPDEST PUSH1 0x20 DUP3 ADD SWAP1 POP SWAP2 SWAP1 POP JUMP JUMPDEST PUSH0 PUSH1 0x20 DUP3 ADD SWAP1 POP DUP2 DUP2 SUB PUSH0 DUP4 ADD MSTORE PUSH2 0x1F0E DUP2 PUSH2 0x1ED5 JUMP JUMPDEST SWAP1 POP SWAP2 SWAP1 POP JUMP JUMPDEST PUSH0 PUSH1 0x60 DUP3 ADD SWAP1 POP DUP2 DUP2 SUB PUSH0 DUP4 ADD MSTORE PUSH2 0x1F2E DUP2 DUP7 DUP9 PUSH2 0x1B5B JUMP JUMPDEST SWAP1 POP PUSH2 0x1F3D PUSH1 0x20 DUP4 ADD DUP6 PUSH2 0x1B87 JUMP JUMPDEST PUSH2 0x1F4A PUSH1 0x40 DUP4 ADD DUP5 PUSH2 0x1117 JUMP JUMPDEST SWAP6 SWAP5 POP POP POP POP POP JUMP INVALID LOG2 PUSH5 0x6970667358 0x22 SLT KECCAK256 CODECOPY DUP13 0xB3 0x21 DUP12 0xED 0x49 PUSH16 0x2FE91C28A1DCFE5FBAF900A0E914F863 PUSH30 0x9FD9EDFBE3A72264736F6C63430008140033000000000000000000000000 "},"methodIdentifiers":{"invest(string,uint256)":"d22782af","listProperties()":"2625fe2a","owner()":"8da5cb5b","setProperties((string,string,string,uint8,uint256,uint256,string,string,string,int32,int32,uint16,uint64)[])":"5320e950","upsert((string,string,string,uint8,uint256,uint256,string,string,string,int32,int32,uint16,uint64),uint256)":"3cafd93e"}}}}}